:1000000007C300003DC300003BC3000039C300002C
:1000100037C3000035C3000033C3000031C3000004
:100020002FC300002DC300002BC300000C941D2E15
:100030000C94C92E0C94AE2823C3000021C30000E9
:100040001FC300001DC300001BC300000C94352912
:1000500017C3000015C3000013C3000011C3000044
:100060000FC300000DC300000BC3000009C3000054
:1000700007C30000005C14001A00090013000A0006
:100080004B000D000F0018001C0033002A002961EE
:10009000040015001600170007004E000B001100A9
:1000A00008000C0012003400E1001D001B000600D7
:1000B000190005004A000E00100036003700380015
:1000C00028003500E300E2000000015800000000B5
:1000D00000002C4237000000E600390035021E0205
:1000E0001F02200221022202010023022402250213
:1000F000260227022A0038001E001F0020002100CF
:1001000022000100230024002500260027003100E2
:1001100001000100010001000100010001000100D7
:1001200057002E00010001000100290037003700B0
:100130000000010000000000000001006400000059
:100140003500010001000100010052000100010022
:10015000010001002D0201002F003000010001000C
:100160000100500051004F000100010001002D006E
:1001700001002F02300201003A003B003C003D002C
:100180003E003F00010040004100420043004400A7
:100190004500005C010001000000010000000000BB
:1001A000000001000100000001000100FD377A5845
:1001B0005A000004E6D6B4460200210116000000F1
:1001C000742FE5A3E003ED01585D003D8889C65416
:1001D00036C3174FE4E467386B85DF85769F446547
:1001E0007E95F943271B2CC0ED273ACB3201D08AEC
:1001F00034F21C8AE2197780EFBD70D6404796CF63
:10020000612F8E7E42D62F2DDC3339376CA9DCDC92
:1002100049D6746BFB1381DE67BA1076318D6CB6EC
:100220008E1D26F40DE2D4E05945467376CEB01209
:10023000615880CBEB5501A1C8D9B2BF6A62247264
:10024000D142957EA8DFC36A75DE94FD37803827DA
:10025000C6FE0E820524E54D0D9B78E3931B3529E0
:100260007DF551207F91BD20F29DE65BCFEF33C33A
:10027000DD1A6A2CF420408655F8665AF158EE9A39
:100280007675361A67ECFCE9A9EE5746DE959F783D
:10029000AAA1844A4797CBDD01C11FA9104E896FDF
:1002A0001D2F30BC56C0B44809B857D5D039A2E785
:1002B000597D50E3943E7CAD3DE81FE6E31D52209E
:1002C00080478B9813BBECE892095C9842F2F716D2
:1002D0002BE6FF831DC98BA4BF86D9D2A9EB362E8E
:1002E000E89AE35E1AB53D02A71AB84A49EA49817D
:1002F000EB6C09FF854CE569B5DBAC2053B4FD25FB
:10030000FDE2BBBB28AE2521D0F4F4E4896B898AD9
:1003100032D2155F4571AEFB40C5C0B98E3089EA57
:1003200014F59500F345EEA6F3A330450001F40261
:10033000EE0700003CFC7904B1C467FB020000003A
:100340000004595A010001000C049D1ACD1A000046
:100350000200020008049D1ACD1A000003000100EB
:100360000D049D1ACD1A000004000200F2039D1A2C
:10037000CD1A971A050001000E049D1ACD1A00002F
:1003800006000200F4039D1ACD1A000007000200C7
:100390000A049D1ACD1A0000080001000F049D1ADE
:1003A000CD1A00001200020010049D1ACD1A0000A0
:1003B0001300020012049D1ACD1A0000140001005F
:1003C00014049D1ACD1A0000150000000000A419A5
:1003D0001E1A000000000000000000002A2B280068
:1003E00000000000000000000000000000000029E4
:1003F000000000002C1E3420212224342627252E24
:10040000362D3738271E1F2021222324252633335B
:10041000362E37381F0405060708090A0B0C0D0E87
:100420000F101112131415161718191A1B1C1D2F53
:100430003130232D350405060708090A0B0C0D0E73
:100440000F101112131415161718191A1B1C1D2F33
:100450003130354C000000000000000000000000BA
:10046000000000000000000000000000000000008C
:1004700000000000000000007E0F00D4FFFFFFC757
:10048000000000781C037600690061006C003A00EF
:1004900066003600340063003200620033006300FF
:1004A00000002003500068006F0065006E006900C6
:1004B00078003400350020004F007200740068009E
:1004C0006F0000000A034E0061007300700000001E
:1004D0000403090409025B00030100A0FA090400F7
:1004E0000001030101000921110100012240000760
:1004F000058103080001090401000203000000094E
:1005000021110100012222000705820320000107BA
:100510000503032000010904020001030000000993
:100520002111010001226D00070584032000011242
:100530000100020000000870704918010001020368
:10054000010660FF0961A1010962150026FF0095FF
:1005500020750881020963150026FF0095207508A3
:100560009102C005010980A101850319012AB70084
:10057000150126B700950175108100C0050C090111
:10058000A101850419012AA002150126A0029501E6
:1005900075108100C005010906A10185060507192E
:1005A000E029E71500250195087501810205071965
:1005B0000029EF1500250195F07501810205081944
:1005C000012905950575019102950175039101C0F9
:1005D00005010906A101050719E029E71500250114
:1005E00095087501810295017508810105071900BB
:1005F00029FF150026FF00950675088100050819DA
:10060000012905950575019102950175039101C0B8
:1006100011241FBECFEFD4E0DEBFCDBF04B603FE72
:1006200018C080912E0490912F04A0913004B091B5
:1006300031048730904BA740B04B59F410922E04F0
:1006400010922F041092300410923104E0E0F8E38D
:10065000099511E0A0E0B1E0E8E7F3E602C00590FB
:100660000D92A23BB107D9F724E0A2EBB1E001C0A3
:100670001D92AE32B207E1F70E94D3130C945731AA
:10068000BFCC83E008959C013A9521153F4150F578
:10069000FC01EE27F170BC0166277270AC014427A3
:1006A00054709C012227387094FF0EC080E1EF2B1C
:1006B00009F480E0672B09F08062452B09F0806423
:1006C000232B89F08068089581E0EF2B09F480E006
:1006D000672B09F08260452B09F08460232B19F009
:1006E0008860089580E00895CF93DF93EB01CBDF1E
:1006F000FE010995DF91CF910895CF93DF93EC012F
:10070000805E9109089720F063E776E0209711F466
:1007100069E676E0CE01E8DF8C2FE3D1DF91CF915F
:100720000895CF93DF93EC0166D2CE01805E9109EC
:10073000089720F068E776E0209711F46EE676E0FF
:10074000CE01D2DFDF91CF9108950F931F93CF9306
:10075000DF938C01EB01D1DF209739F4C801E1DF91
:10076000DF91CF911F910F9108958FE99FE001973D
:10077000F1F700C000002197EFCF60911204709153
:1007800013048933910521F06091100470911104D4
:10079000DCCF089581E0089581E00895FDCF0895AC
:1007A0000895FECF0895A5E0B0E0E9EDF3E00C94E4
:1007B000A33049835A833091B90189819A813111DB
:1007C00016C0662389F0222379F041D6182F682FAE
:1007D00089819A8115D669817A81812F0E947E183C
:1007E0002596E3E00C94BF301FD6182FF4CF2FD6F8
:1007F00069817A81F3CFFC01262F8681978100974A
:1008000031F440815181628173818481CCCF08951C
:10081000CF93DF93EC0161E0EEDFBE010E941A246A
:10082000DF91CF910895CF93DF93EC0160E0E3DF98
:10083000BE01B7DFDF91CF910895E1E0F0E0DF0185
:1008400002C0AA0FBB1F6A95E2F7BD01DF0102C01B
:10085000AA0FBB1F4A95E2F76A2B01C0EE0F2A953B
:10086000EAF7962F9823961302C08E2B0895E095F1
:100870008E230895242F462F682F8091D101DDDF2C
:1008800023C508950C94881208950C948B12089532
:10089000089541D2FDDF2FEF84E39CE0215080409A
:1008A0009040E1F700C000000895F3DF0C9459294F
:1008B0000895EFDF0C947D2908950F931F93CF9334
:1008C000DF93EC018B010E943614811106C080E099
:1008D000DF91CF911F910F910895B801CE010E9431
:1008E0003F178823A1F3B801CE0158DF882379F39D
:1008F000B801CE010E94ED1C882349F3B801CE0156
:100900000E94B820882319F3B801CE010E940A275B
:100910008823E9F2B801CE010E94261D8823B9F28E
:10092000B801CE010E946426882389F2F8018281F1
:10093000882361F0CA35FDE5DF07E9F050F4C11501
:10094000ECE5DE0781F0CE3DDC4579F0C80122DF21
:10095000BFCFCC358DE5D80759F080F0C73ADD45DB
:10096000A9F7A7DFB4CFA1DFB2CF0E94A80FF9CFBC
:100970000E94EC0EEBCF0E94F50EE8CF0E94F80E1D
:10098000E5CFCF93DF93EC0161E035DFBE0195DF6A
:10099000DF91CF9108950E94942814C0089515D036
:1009A0000C94982808950895FECF089581E0089545
:1009B000FDCF08950895CF93C82FF6DF8C2FF8DF71
:1009C000CF91089580E0F7CF08950E946527F3CF77
:1009D0000895CF930E946527C82F8091B4018C178A
:1009E00071F0C093B4010E941A296093B50170930D
:1009F000B6018093B7019093B8018C2FDCDFCF91C3
:100A00000895019708F40895EFE9FFE03197F1F7B1
:100A100000C00000F6CFADE0B0E0E1E1F5E00C94FD
:100A2000A43049875A876B877C878D878C859D8505
:100A3000892B29F0CA0189238F3F09F043C08B8598
:100A400081110E94160E1D821E821F82188685E06B
:100A5000FE013996DE01119601900D928A95E1F71B
:100A600080918F0382FF12C08091F4039091F5036F
:100A7000892B61F00E94D20D882319F082E00E9438
:100A8000BF0E0E94AE0D81110E94400E8C819D818F
:100A9000892B69F429813A814B815C816D817E814A
:100AA0008F819885ACD72D96E2E00C94C030898177
:100AB0009A8189238F3F71F3CE010196A9DE8111BE
:100AC000E9CFF1CF8091BA019091BB01019690934B
:100AD000BB018093BA01B3CFFC0180819181E3C453
:100AE0000895CF93C82F8823C9F08238C9F40E9493
:100AF000652781FD13C089E30E94940D0E944D0E6D
:100B00002FEF87EE93E0215080409040E1F700C046
:100B1000000089E30E949C0D0E944D0ECF91089524
:100B2000833899F40E94652780FDF8CF83E5FCD7D0
:100B30000E944D0E2FEF81EE94E0215080409040B6
:100B4000E1F700C0000083E5E5CF843899F40E9406
:100B5000652782FDE3CF87E4E7D70E944D0E2FEF94
:100B600081EE94E0215080409040E1F700C0000009
:100B700087E4D0CF8CEF8C0F813AA8F48C2F0E94A1
:100B800030268111CBCF6C2F809100019091010113
:100B90000E94CE27882321F08C2FCED70E944D0EA5
:100BA0008C2FC2D7B9CF80E28C0F883048F4C77041
:100BB00081E001C0880FCA95EAF70E94F60DACCF1C
:100BC000EBE5EC0FE33040F4F0E0E35BFE4F8081B7
:100BD00090E00E948E27A2CFC85AC73108F09ECF5E
:100BE000EC2FF0E0EE0FFF1FE15EFE4F8081918160
:100BF0000E94A42793CF882309F448C0823869F45F
:100C00000E94652781FF42C089E38ED70E944D0E66
:100C100089E392D70C944D0E0895833851F40E94C5
:100C2000652780FF33C083E57FD70E944D0E83E5A3
:100C3000F0CF843851F40E94652782FF27C087E4F3
:100C400073D70E944D0E87E4E4CF9CEF980F913A42
:100C500000F390E2980F983048F4877091E001C05B
:100C6000990F8A95EAF7892FC7D7D4CF9BE5980FBC
:100C7000933028F490E080E00C948E270895885AF1
:100C8000873120F490E080E00C94A42708951F930E
:100C9000CF93DF93182FEB0124DF209731F4812FBE
:100CA000AADFDF91CF911F9108958FE99FE001970F
:100CB000F1F700C000002197F0CF6091120470910D
:100CC0001304893321F06091100470911104DFCF77
:100CD0000895882311F08AD7E0C70895882311F07A
:100CE0008BD7DBC70895882311F093D7D6C7089513
:100CF000882311F094D7D1C7089590E080E00E9436
:100D00008E2790E080E00E94A42790D7C6C7089560
:100D10001BD7F3CF08957AD7FBCF089592959F7094
:100D2000963091F058F4925F9F70923058F4803F63
:100D300019F030F4883E30F481E008959A5FF4CFE2
:100D4000843FD1F380E00895883EB0F3813FD1F72E
:100D5000F3CFFC0183819481892B29F080819181DB
:100D600089238F3F31F480E008950E948D10D6CF03
:100D70000895868197810097C1F78081918193D3EF
:100D8000F6CFB0E0A0E0E7ECF6E00C949D306C010B
:100D9000EB01FC010281158112951F701DD7E82E11
:100DA0008823A9F0E02E002391F08D2F807F8034DE
:100DB00021F080E28C0F8830C0F080918F0382FF99
:100DC00014C082E0DCD708D791E0E82EE926BD2EDA
:100DD000B2942FE0B222FBE0FB1508F470C0EB2DBB
:100DE000F0E0E75AFE4C0C948730E12CF0CF2D2F29
:100DF0002F70F22E8D2F807F19F0F29490EFF92250
:100E0000002381F0FF2049F080E28C0F883010F041
:100E1000C11105C08F2DEAD640D78C2F4AC08F2D27
:100E2000F8D6FACF8C2FE7DEFF2009F448C080E225
:100E30008C0F883010F0C11103C08F2DDDD602C099
:100E40008F2DEDD62AD73BC03D2F3F70F32E8D2F2F
:100E5000807F803219F0F29480EFF822CC23E9F001
:100E6000C13009F485C0002309F48EC0112309F4B0
:100E700060C020E0F60140815181628173818481EC
:100E800092DCB6010E94BB1B8111C7CFF6018581A0
:100E900080FFC3CF8F7085834CC080918F0382FD0C
:100EA00030C0002341F0FF2019F08F2D9FD6F5D6DA
:100EB00080E017DE04C080E09EDEF110BECFEB2D97
:100EC000E850FF0B349718F40E94652774DDCE01BB
:100ED00025DF811169C11092BB011092BA01EE2089
:100EE00059F05CD680FD08C0F601128251D6FCD1C3
:100EF000C60193D14DD603D2CDB7DEB7E9E00C944D
:100F0000B9300023C1F0111104C093D68F29E1DE5E
:100F1000D6CF113021F48DD68F299CD6D0CF809199
:100F20000E04823090F38113F0CFAAD614D68F2905
:100F300086D68F2DECCF111102C0A2D611C08091A0
:100F40000E04113081F4823008F4B9CF4CD68F21D1
:100F500009F4B5CF95D6FFD59F2D909589236FD6EF
:100F60008F2DBCDEACCF823040F31813E6CFA7CF75
:100F700080911404002321F0811708F4A0CFD9CF69
:100F8000181708F09CCFECCF112351F38091120475
:100F900090911304C93321F08091100490911104B1
:100FA00030DD8C2F28DE8BCF8D2F86958695837034
:100FB00061F0813009F083CFCE019370011102C03E
:100FC00090E080E00E94A4277ACFCE0193700111B7
:100FD00002C090E080E00E948E2771CF8D2F837039
:100FE00061F501116CCF4C2F429546954770440F27
:100FF000440F8C2F8F70042E01C0880F0A94EAF7DB
:101000002C2F2071C4FF07C02FE030E001C0220F59
:101010004A95EAF720959D2F969596959370822B89
:10102000923039F040F4913011F040D148CF39D1AD
:1010300046CF41D144CF33D142CF8695002311F022
:101040008D2F8170882309F43ACF4C2F4295469515
:101050004770440F440F8C2F8F70042E01C0880FEF
:101060000A94EAF72C2F2071C4FF07C02FE030E06C
:1010700001C0220F4A95EAF720959D2F96959695E7
:101080009370822B923039F040F4913011F053D1AB
:1010900016CF4CD114CF54D112CF16D110CFFD2F73
:1010A000FF70FF2E002321F08F2F1ED18C2F2FCF0A
:1010B0008C2F14DE8F2D23D102CFC23F49F160F473
:1010C000C03FB9F0C13F81F0002309F468C011119D
:1010D000A4CE8D2F8F7120C0C33F01F1C43FA1F773
:1010E00080918F0382FD22C08D2F8F71002319F311
:1010F00013C080911404002339F0181708F0DFCED4
:101100008D2F8F7108D1DBCE811708F4D8CEF8CFA0
:101110008D2F8F710111CFCFE7D0D1CE002321F0D9
:101120008D2F8F71D9D0CBCED4D0C9CE80910E0463
:10113000823010F10023B1F031D5843031F416D66D
:101140008D2F8F71DCD0E12CBACE80910E04181750
:10115000D0F72D2F2F71F22E822FC6D063E08F2D66
:10116000EAD5F1CF181728F001D664E08D2F8F71E2
:10117000F7CF81E004D6E7CF002349F03D2F3F7140
:10118000F32E832FB1D063E08F2DD5D598CE81E09B
:10119000F6D5123008F493CE82E0F1D590CE11113D
:1011A000F5CE8D2F8F7187CF002319F0111193CEBB
:1011B00096CE111190CE20E0F601408151816281DE
:1011C00073818481F0DAB6010E94C61B882309F47A
:1011D00082CE8091BA019091BB01029709F07BCE3B
:1011E0008C2F6BDD78CE0F931F93CF93DF93EC01A1
:1011F0008E819F81009761F090D78C01A6D04ED050
:10120000B801CE01BEDDDF91CF911F910F910895FE
:10121000688179818A8150D1F0CFCF93DF93EC013F
:101220008B819C81892B29F08881998189238F3F2B
:1012300041F4DF91CF910895CE01D5DFCE01F3DAED
:10124000F8CFCE019EDB8111F7CFC6D4882389F376
:101250008A81882371F380918F0382FFEACF82E035
:101260008ED5E7CFA5E0B0E0E8E3F9E00C94A43038
:101270002596E2E00C94C030A8E0B0E0E2E4F9E0AA
:101280000C94A4302896E2E00C94C0300895FECF70
:101290000895FDDF8093D20130CD08950895F9CFF0
:1012A00008959091D201892BF4CF08959091D201A5
:1012B0008923EFCF08959091D2018927EACF08952D
:1012C000E5CF0895FDCF0895FDDF8093D10115CDC1
:1012D000089580E0F9CF089591E001C0990F8A95B3
:1012E000EAF7892FF1CF089521E030E001C0220F05
:1012F0008A95EAF78091D101822BE6CF089521E00B
:1013000030E001C0220F8A95EAF720958091D10143
:101310008223DACF089521E030E001C0220F8A95C0
:10132000EAF78091D1018227CFCF08959091D10122
:10133000892BCACF08959091D1018923C5CF0895F3
:101340009091D1018927C0CF08950895CF93DF935D
:10135000282FFA01862F8770A1E001C0AA0F8A9575
:10136000EAF7CB0133E0969587953A95E1F763E08C
:1013700070E00E946330E80FF91F50E040E0822FD8
:1013800090E06191EF0121979C01042E02C03695F7
:1013900027950A94E2F72170219526272A232627EC
:1013A00028834F5F5F4F4330510559F7DF91CF914D
:1013B0000895FB01A82FA77023E0969587952A959D
:1013C000E1F763E070E00E946330E80FF91F50E03E
:1013D00040E080E0219130E00A2E02C0369527954A
:1013E0000A94E2F721703327042E01C0220F0A94D9
:1013F000EAF7822B4F5F5F4F4330510559F708954D
:10140000282F362F943078F48D3068F4892F90E0AF
:101410006DE070E00E946330BC01620F711D4CEB07
:1014200051E0832F93CF0895282F943070F48D309E
:1014300060F4892F90E06DE070E00E9463306CEB07
:1014400071E0820F911DB5CF089580E00895CF928D
:10145000DF92FF920F931F93CF93DF936C01009164
:10146000D1018091D201082BC7E0D0E010E0FC2E22
:10147000C8010C2E02C0959587950A94E2F780FD6D
:101480000CC02197A0F7F12C8F2DDF91CF911F91E8
:101490000F91FF90DF90CF900895B6018C2F24D745
:1014A000019779F3F1CFCF93DF93EC01D0DFBE0149
:1014B0001BD7DF91CF9108951F93CF93DF93EB015B
:1014C0009091B901992331F0CB01EDDFDF91CF91FC
:1014D0001F910895882351F0CB01B9DF182F682F91
:1014E000CE018EDFBE01812FFFD6F0CFCB019CDF76
:1014F000182FF8CFCF93DF93C091D3018091D401FF
:101500008C1303C0DF91CF910895D0E0FE0183E0FA
:10151000EE0FFF1F8A95E1F7EB52FE4F20813181DC
:10152000428153816481758186819781A5DE2196F0
:10153000C770E4CF20911502309116024091170236
:10154000509118026091190270911A0280911B0249
:1015500090911C0291CE08952091D3019091D401D5
:10156000291302C080E0089530E0F90153E0EE0F46
:10157000FF1F5A95E1F7EB52FE4F5181561306C0FB
:101580005081581303C05281541304C02F5F3F4F42
:101590002770E6CF81E00895CF93DF9380911A0200
:1015A000807F09F047C080911702882309F442C068
:1015B0008091D301C091D4016091150270911602FF
:1015C000A0911802B0911902D62FD723C81791F114
:1015D00090E0109711F0DF3F19F401968770F6CF75
:1015E0009C0143E0220F331F4A95E1F7F901EB52CA
:1015F000FE4F41814713F1CF40814613EECF428128
:101600004111EBCF438154814A1B5B0B483C510590
:1016100020F780911A028F70806180931A02F9017D
:10162000E652FE4F80818F708061808385E192E079
:10163000F4DD60DFDF91CF910895A5E1B0E0E3E252
:10164000FBE00C9498308C0185E0F801DE015196A6
:1016500001900D928A95E1F7D8017C9011966C90DB
:1016600011971296EC9012971396CD90DC9060E053
:1016700085E192E0C0D84C0185E1A82E82E0B82E29
:1016800040911802509119024115510509F49BC16E
:101690009091150220911602892F82238F3F09F421
:1016A00092C1F0901702F601E41BF50BFF2009F43C
:1016B00031C180911A02382F307FE83CF10508F0E3
:1016C000D7C0D80111964C911197311184C0FE2CCE
:1016D00042131FC02C9129131CC040911B02509132
:1016E0001C0216962D913C914217530791F4E1107C
:1016F00010C08F70806180931A021CDFC5018DDDE0
:1017000080911A02F80185838F2D6596EEE00C9486
:10171000B430C114D10429F0872D86218F3F09F000
:101720006BC180E080FF19C04E2D662D872D14DF20
:10173000882399F065E172E0C4010E94B71B8823F9
:1017400061F085E192E069DD88E0E5E1F2E0DF014A
:101750001D928A95E9F7EEDE3CC0C114D10429F050
:10176000872D86218F3F09F044C180E0B82FB170EA
:10177000DB2E80FF26C04E2D662D872DEDDEC82E78
:1017800081111FC0798A6A8A89899A898CDE292FFA
:1017900022952F70223050F0243078F49F7051F051
:1017A000F8019581907F31F4FC2CAECF9F7011F041
:1017B0008823D1F3805E8830B8F3C8012EDDCD2CAC
:1017C000F3CFEE2009F4A0CF80911A0281608093BC
:1017D0001A02F12C99CF42131EC02C9129131BC061
:1017E00040911B0250911C0216962D913C91179727
:1017F0004217530781F4E1100EC015968C93C8016F
:101800000CDD88E0F801A5E1B2E001900D928A9527
:10181000E1F790DE79CFC8019CDA882331F1EE2020
:1018200021F180911A02803298F0209115023091B6
:1018300016023A8729871B86DD86CC868E878091A3
:101840001B0290911C02988B8F87CE010996E5DCD4
:1018500088E0F801A5E1B2E001900D928A95E1F7E8
:101860009BDE68DEFF24F3944FCFC801D6DCFACFAD
:10187000311111C07C2DDD8ACC8A472D562D6E2D5D
:101880008D89F0DC85E192E0C8DC88E0F5011192F9
:101890008A95E9F760CFD80111963C9111973213E0
:1018A0001AC02C91291317C040911B0250911C02A1
:1018B00016962D913C9117974217530761F4E1104A
:1018C0000AC015968C93C801A8DC88E0F501119236
:1018D0008A95E9F719CFC8013CDA882331F2EE2066
:1018E00009F4C3CF80911A02803208F4B1CF20915D
:1018F0001502309116023A8329831B82DD82CC8245
:101900008E8380911B0290911C0298878F83CE0159
:1019100001969DCFE83CF10508F047C0FE2CEE2073
:1019200009F4A3CFD80111968C911197821331C07D
:101930008C9189132EC020911B0230911C021696A7
:101940008D919C912817390721F565E172E0C4015A
:101950000E94C01B811114C090911A0290FD10C00A
:10196000907F71F080911A02F8018583903F09F40D
:1019700046CF982F907F905F8F70892B85833FCFC4
:1019800088E0F801A5E1B2E001900D928A95E1F7B7
:10199000BBCEC801DED981115BCF80911A02816074
:1019A00080931A02C80139DCAFCE7C2DDD8ACC8A47
:1019B000472D562D6E2D8D8955DC88E0D5011D9261
:1019C0008A95E9F726CFEE2009F44FCFC801C1D997
:1019D000F82E882309F449CF88E0F801A5E1B2E0A8
:1019E00001900D928A95E1F785E192E075D8D4DDFA
:1019F00010CF81E08E25BACE81E08E2593CEA0E176
:101A0000B0E0E5E0FDE00C94A43029873A874B87ED
:101A10005C876D877E878F87988BCE0109960DDE58
:101A20008823A9F08C859D85892B39F029853A85F5
:101A3000822F83238F3F09F06FC08091D301909153
:101A4000D401891341C06096E2E00C94C03088E074
:101A5000FE013996DE01119601900D928A95E1F70B
:101A60008C859D85892B49F389859A8589238F3FAC
:101A700021F3A091D401B0E0CD01019687709927A0
:101A80002091D3012817190669F445D91092D40181
:101A90001092D30188E0E5E1F2E0DF011D928A9522
:101AA000E9F7CBCF33E0AA0FBB1F3A95E1F7AB5272
:101AB000BE4F98E0FE01319601900D929A95E1F7A4
:101AC0008093D40117DDB9CF90E023E0880F991FF0
:101AD0002A95E1F78B529E4FB0DD882309F4B3CFEE
:101AE000E091D301F0E083E0EE0FFF1F8A95E1F76C
:101AF000EB52FE4F20813181428153816481758197
:101B000086819781B9DB8091D30190E0019687703F
:101B100099278093D30191CF4B855C856D857E8518
:101B20008F859889A9DB89CF682F809100019091DA
:101B300001010C944E280895682F80910001909126
:101B400001010C945A28089580910001909101019F
:101B50000C94662808958091420208958091F403C0
:101B60009091F503892B89F00E940E292091400263
:101B700030914102AC01421B530B81E02091F403F0
:101B80003091F5034217530708F480E081700895FF
:101B900080913F02859585958595089580913F02B6
:101BA000877008950E940E2920913D0230913E02D7
:101BB000821B930B2091F4033091F5038217930756
:101BC00048F080913F0282FB882780F991E08927C5
:101BD0008170089580E0FCCF90913F02977081E082
:101BE00009F480E00895809165020895909165025E
:101BF000892B8093650208958095909165029823C2
:101C0000909365020895809365020895109265028D
:101C1000089590916402892B8093640208958095C1
:101C20009091640298239093640208951092640244
:101C300008958091430208950895FECF08959091EC
:101C40004202981719F080934202F7CF0895089541
:101C5000FECF0895CF93C82F80918F0382FF0EC0CF
:101C6000809143028C1751F00E940E2990934102FB
:101C700080934002C09343028C2FEADFCF910895F6
:101C800080914302882341F0109243021092410256
:101C90001092400280E0DCCF0895CF93DF93E09173
:101CA0000001F0910101809165028083E0910001C3
:101CB000F0910101808190916402892B8083809151
:101CC00043028823D1F08091F4039091F503892B8E
:101CD00019F044DF8111D4DFE0910001F09101019E
:101CE000808190914302892B8083809100019091A3
:101CF00001010E94BA278111C3DFC0910001D09178
:101D0000010140E250E06DE172E0CE010E94E83056
:101D1000892B59F080E2FE01ADE1B2E001900D9215
:101D20008A95E1F7CE010E947427DF91CF91089543
:101D30000895FECF089590918F0392FF15C0982FBC
:101D4000990F990F990F962B90933F02CDDA0E942D
:101D50000E2990933E0280933D0280913F0285952B
:101D600085958595E6CF0895BFCA089510923F02E4
:101D700010923E0210923D0280E0DBCF08959091D8
:101D80003F028095892380933F02282F277081F49A
:101D9000282F082E000C330B9217130649F0909150
:101DA0008F0392FF05C0859585958595A8DADECFCE
:101DB000089590918F0392FB222720F9281759F05C
:101DC00080FB92F990938F0380918E0390918F0303
:101DD0003CD082E0D4CF089580918F0382FB882786
:101DE00080F991E08927E5CF089581E0E2CF089559
:101DF00080E0DFCF08956FEF7FEF90E080E00C94FC
:101E00003C31089590E080E00E941D31883E9E4F55
:101E100011F4D2C4089580E0089582E090E00C941B
:101E20001531089583E090E00C9415310895CF9317
:101E300084E090E00E941531C82F82E290E00E9479
:101E40001531982F8C2FCF910895CF93C92F682FDC
:101E500084E090E00E9422316C2F82E290E00E94A8
:101E60002231CF910895AB01BC018FE090E00C943A
:101E700034310895AB01BC0183E190E00C9434311E
:101E8000089560E070E0CB01F5CF089560E070E068
:101E9000CB01E9DFF6CF089568EE7EEF90E080E0B9
:101EA0000E943C3160E082E090E00E94223160E0DC
:101EB00083E090E00E9422311092D20160E084E041
:101EC00090E00E94223164E082E290E00E942231A0
:101ED00060E085E090E00E94223160E086E090E0E2
:101EE0000E9422316FEF87E090E00E94223140E0B3
:101EF00050E0BA0188E090E00E94343160E08DE06B
:101F000090E00E94223140E050E0BA0188E190E088
:101F10000E94343160E087E190E00E94223140E08D
:101F200050E0BA018CE190E00E94343170E060E052
:101F300080E290E00E943C3140E050E0BA0188E14C
:101F400090E00E94343180E050D47DD49FCF08953A
:101F5000A3CF0895682F8EE090E00C94223108956D
:101F60000E941A29609378027093790280937A0212
:101F700090937B0260937402709375028093760253
:101F80009093770208950E941A29609378027093C3
:101F9000790280937A0290937B026093700270932F
:101FA00071028093720290937302089508950895C8
:101FB000FECF08950895FECF08958CE592E10E942A
:101FC0005B27D8D50E94E71AF1DFF2CF089581E0B0
:101FD0000895FDCF089508950895FDDFFDCF08957C
:101FE00081D20E94DA040C942C1C08950E940529C9
:101FF00035D440D3F5DF0E94E521DDCF08950E945E
:10200000DA230C9480200895AAE0B0E0EAE0F0E141
:102010000C94993043D328E6822E22E0922E64015C
:1020200010E0F601E190F1906F01812F76D21F5FF1
:10203000143009F445C0E816F90699F380917C0242
:1020400081FD74D2C6DF782E10E0812F66D27C012C
:10205000F401A190B1904F018A159B0561F1A8266A
:10206000BF2400E0CC24C394D12CC5018C219D2138
:10207000892BC1F07720B1F00E831F8321E0C701C7
:102080008C219D21892B09F420E028870E940E29AC
:102090008160782F9A8789874E815F8168858A85DC
:1020A0000E940B050F5FCC0CDD1C0D30F1F6F40126
:1020B0003297F182E0821F5F143039F651DF22C07F
:1020C000E816F90609F0BACF0E940E298C0180911A
:1020D00066029091670208171907A1F08FEF8983B4
:1020E0008A831B820E940E298160782F9D838C83B6
:1020F00049815A816B818D810E940B051093670283
:10210000009366027CDF0E94022281113CDF0E9464
:10211000E9042A96EDE00C94B530CF93DF93E7D035
:10212000EC01811522E59207E8F5811531E5930769
:1021300008F0A8C0883E910510F5803E910570F525
:10214000883A910570F4853A910508F07AC081309B
:10215000910521F1009711F1049700F5D0E0C0E05E
:102160001DC08F3B9105D0F7C85AD0E0CC0FDD1FC2
:10217000C05BDE4F0990D881C02DD4640FC081159B
:1021800040E5940708F068C0C11580E4D80708F05E
:1021900060C0CE019A9581159F4100F7CE01DF9175
:1021A000CF910895811536E5930730F5811545E502
:1021B000940708F083C0C11584E5D80708F079C0FA
:1021C0009C2F969596959E0123703327C115D34574
:1021D00008F45DC0C1E0D0E002C0CC0FDD1F2A953D
:1021E000E2F7892F90E075E0880F991F7A95E1F763
:1021F000C82BD92BDA68D2CFC1158AE5D80778F475
:10220000C11529E5D20708F062C0C11538E5D3072A
:1022100008F4A4CFDC2FCC27C06FD06ABFCFCE018B
:1022200090568115904208F099CF8D2F8F7101D172
:1022300090E0982F882788279F719C012C2BE9011B
:1022400044C0C55AD0E0C258DE4FC881D0E0D06447
:10225000A5CFDF70D06AA2CF282F269526952370B0
:1022600030E0A5E0220F331FAA95E1F78370C1E0AB
:10227000D0E002C0CC0FDD1F8A95E2F7C22BD32B32
:10228000DD688CCFD82FCC27C16FD06A87CFC1E053
:10229000D0E002C0CC0FDD1F2A95E2F7892F90E035
:1022A000E5E0880F991FEA95E1F7C82BD92BDC6888
:1022B00075CFDC2FCC27C46FD06A70CFBAD0C82FAF
:1022C000D0E0DC2FCC27CC27DF71D06267CF8C2FFA
:1022D0008F70AFD034E0D695C7953A95E1F7CF70BF
:1022E0009C2FEC01D0695ACF09D717CF08958238B7
:1022F0009105B9F1B0F48133910509F47DC048F43A
:102300008932910509F46DC08A32910509F47BC0C8
:1023100008958533910509F45FC08933910509F16A
:102320000895833E9105D9F138F4803E910529F155
:10233000823E910579F10895863E9105D9F1873E57
:10234000910509F43EC0843E910541F520918F032B
:1023500021FF24C080918E0384FD19C087EE90E098
:10236000089520918E03237009F05AC020918F03A5
:1023700023FF14C089E290E0089520918E0320FD90
:1023800038C030918F0330FF09C024FF43C090E074
:1023900080E0089520918E0322FDF7CF08952091CB
:1023A0008E0322FD3AC030918F0330FD39C024FFE7
:1023B000F5CFEDCF20918E0323FFF0CF24FDE7CFA3
:1023C000CDCF20918E0323FD2EC030918F0331FF9E
:1023D000EECF84EE90E0089520918E0325FFDECFAE
:1023E000C9CF20918E0325FD21C020918F0323FFAB
:1023F000D5CF89E390E0D2CF20918E0326FFCECFB8
:102400008AE290E0089520918E0326FFC7CF81E3F2
:1024100090E0089583EE90E0089582EE90E00895B4
:1024200080EE90E0089586EE90E0089585E390E0D8
:10243000089590918E0392FF06C0282F28712830AE
:10244000F9F4877F846093FF06C0282F2871283114
:10245000F1F4877E846120918F0320FF06C0382F1E
:1024600038713830D9F4877F816021FF06C0282F6A
:1024700028712831D1F4877E816194FD877E08958B
:10248000282F24712430F9F68B7F8860DCCF282F29
:102490002471243101F78B7E8861DDCF382F3171B3
:1024A000313019F78E7F8860E0CF282F21712131DC
:1024B00021F78E7E8861E1CF80E008959CCC08955D
:1024C000EDD08FE39CE90197F1F700C00000E6D062
:1024D00080E023D080FF03C0F1DF0C9459290895D8
:1024E000EFCF08958FDC811101C032DD96DC80933F
:1024F0007C029DDC90938F0380938E03F1DF92DC4E
:102500000E944F098091D1010C94620908950895A9
:10251000FECF08950895FECF0895E82FF0E0EE0F66
:10252000FF1FE856FC4F808191810895089580EA4D
:102530008A95F1F7089500C00895F9CF0895F894A9
:10254000E82FE295EF70F0E031A1282F2F7081E0A5
:1025500090E001C0880F2A95EAF7982F9095932371
:1025600091A392A1892B82A378940895CF93DF93AE
:1025700082E9E5DF81E9E3DF80E9E1DF84E6DFDFAF
:10258000C1E8D1E089918F3F09F0D9DF81E0CE38F1
:10259000D807C1F7DF91CF910895AF92BF92DF9234
:1025A000EF92FF920F931F93CF93DF938C01D62E60
:1025B000C62FD0E0CE0182579E4F7C01FC012081C6
:1025C0002F3F09F44AC0F894E22FE295EF70F0E053
:1025D00031A12F7081E090E001C0880F2A95EAF7C1
:1025E000932F982B91A392A18095892382A378940D
:1025F000A2DFE1E8F1E04EE851E021E030E0B12C6B
:10260000A12C61916F3F99F1A62FA295AF70B0E018
:1026100090968C9190E06F7002C0959587956A9521
:10262000E2F780FD24C0C901A82AB92A220F331F6E
:102630004E175F0731F7F70180818F3F09F07FDF89
:1026400061E0A114B10409F460E08D2D76DFCC0FB8
:10265000DD1FC00FD11FB982A882DF91CF911F91DA
:102660000F91FF90EF90DF90BF90AF90089590E0B2
:1026700080E0DACF7BDF88E0E8E9F3E0DF01982F44
:102680001D929A95E9F7E0E9F3E0DF011D928A9542
:10269000E9F784E03CD00C9442040895A8E0B0E04F
:1026A000E4E5F3E10C94A1308E010F5F1F4F88E049
:1026B000F80111928A95E9F7F12C6F2DC8016DDFB1
:1026C000F394F4E0FF12F9CF48E050E0B80180E95C
:1026D00093E00E94E83021E0009709F420E0892B84
:1026E00041F088E0F801A0E9B3E001900D928A95ED
:1026F000E1F744E068E973E080E993E009D0182F3E
:102700000E944504812F2896E5E00C94BD30089581
:10271000CF92DF92EF92FF921F93CF93DF936C01E2
:102720007B01C42F222349F081E080937F020E9425
:102730000E2990937E0280937D0210917F021111E9
:102740000AC010E0812FDF91CF911F91FF90EF9091
:10275000DF90CF90089580917D0290917E020E943B
:102760002629059770F3D0E0CC0FDD1FAE01B6012E
:10277000C7010E94E830892B41F0AE01B601C701C4
:102780000E94F53010927F02DDCF10E0FBCF0E9457
:10279000232B2CDC0C942D2B08950E94312B34DC40
:1027A0000C94472B08950E94AD280E940A2B05DC4B
:1027B000EEDFF3DF12DCFDCF83E290E00E94153103
:1027C000853589F484E290E00E941531893759F407
:1027D00085E290E00E94153191E0843509F090E0A7
:1027E000892F8170089580E0FCCFCF93C82F6FEFC1
:1027F000811165E583E290E00E9422316FEFC11103
:1028000069E784E290E00E9422316FEFC11164E534
:1028100085E290E00E942231CF910895089586E2EA
:1028200090E00E941531682F70E090E080E00895FC
:102830000895CF93C62FFCDF6C2F86E290E00E94B4
:102840002231CF91089580E0D0DF60E070E0CB01CD
:10285000F0DFAAD3BED481E0C8CF0895DFDFDFDF89
:10286000E7DFAADF811101C0EECF0895CF93FB010E
:10287000C281CC2301F19C0122513F452031310519
:1028800018F58251B6D4C0E08C2FCF91089581E025
:102890000E94740943E062E081E00E943A04F3CFB1
:1028A00081E00E947F0943E062E081E00E943A04F7
:1028B000EBCF82E0F6CF8031FFE59F0789F38131CE
:1028C0009F45B9F3C1E0E0CF8031EFE59E07F9F213
:1028D00081319F45C9F682E0DBCF2FEFFC012083D9
:1028E0000895EF92FF920F931F93CF93DF93EC0124
:1028F000062F88812091BA023091BB02232B71F000
:102900008E3F09F054C08981833020F08550833098
:1029100008F04DC0602FCE012FD149C08C3009F492
:1029200098C0C8F4843009F47EC058F4823009F4A9
:1029300047C008F06CC08130B9F1602FCE01CDDF07
:1029400036C0863009F483C008F477C08A30A8F70F
:102950008FEF88832CC0803109F495C0D0F48E307D
:1029600009F481C008F478C08091020190910301BC
:10297000892BE9F06B8170E06D317105C0F48981BC
:102980009A81AE014C5F5F4F982789279827FCD327
:102990000EC0823109F47BC008F477C0833109F49A
:1029A00086C08E3F51F6B6CF198289E08A83602FA8
:1029B000CE010E94FD29CDB7DEB7E6E00C94BC3015
:1029C0008981823071F0833071F0813009F0B5CFA8
:1029D0000E941A290E948D306A837B838C839D8399
:1029E000E6CF1DDFF7CF8091020190910301892B83
:1029F000F1F27E0110E0812F90DDF7019283838355
:102A00001F5FF2E0EF0EF11C1430A9F7D0CF8981DF
:102A1000823009F092CF6A817B818C819D810E94F6
:102A20008D3007DFC4CF4B816A81898143D29827DB
:102A3000892798279D838C83BACF2C813D813227AB
:102A4000232732274B816A81898155D2B0CFACD2FE
:102A5000AECF70D38983ABCF6FD3982789279827C0
:102A60009A838983A4CF6B8170E06D31710508F082
:102A70009ECF89819A81AE014C5F5F4F982789274D
:102A800098275DD394CFA5D392CFFBD1E3CF6B81B1
:102A900070E06D31710508F08ACF89819A81AE01AD
:102AA0004C5F5F4F982789279827D6D280CF6B81BC
:102AB00070E06D31710508F07ACF89819A81AE019D
:102AC0004C5F5F4F982789279827EAD270CFCF9223
:102AD000DF92EF92FF921F93CF93DF93CDB7DEB7D4
:102AE0002A970FB6F894DEBF0FBECDBFE0EAF3E041
:102AF00080E5DF011D928A95E9F7E0E8F2E088E3DE
:102B0000DF011D928A95E9F780EAC82E83E0D82E6E
:102B10007F0110E0F701D182C082BE016F5F7F4F5D
:102B2000812F16D2892B79F488E0FE013196D601E7
:102B300001900D928A95E1F789859A85D7011396C0
:102B40009C938E931297BAE0CB0ED11CE7E0EE0E69
:102B5000F11C1F5F1830F1F62A960FB6F894DEBF0D
:102B60000FBECDBFDF91CF911F91FF90EF90DF900F
:102B7000CF900895ACCF0895CF92DF92FF920F933C
:102B80001F93CF93DF93CDB7DEB72A970FB6F89494
:102B9000DEBF0FBECDBF8C01603269F5DC0111963E
:102BA000EC911197EE3038F5F0E0EB59FE4C0C94B7
:102BB000873088E0E7E1F1E0DE01119601900D92A7
:102BC0008A95E1F780E2F80111928A95E9F785E0AC
:102BD000D8018C9311961C92119712961C92129701
:102BE00013961C92139788E0FE013196149601907B
:102BF0000D928A95E1F72A960FB6F894DEBF0FBEC4
:102C0000CDBFDF91CF911F910F91FF90DF90CF90BB
:102C1000089588E9F801808381E08183128213821C
:102C2000EACF13968C911397682F70E0762F662762
:102C300012968C91860F972F911D092E000CAA0BCE
:102C4000BB0B35E0880F991FAA1FBB1F3A95D1F720
:102C5000AC01BD01405E5F4F6F4F7F4F4817590772
:102C60006A077B0740F28839E1E09E07A105B105BC
:102C700010F64939F1E05F076105710520F048E978
:102C800051E060E070E0481B590BBC0164557E4F79
:102C9000C8010E94DF30AFCF40E250E06FEF70E03C
:102CA0000E94FE3080910201D8018C938091BA027B
:102CB00011968C93A0CF81E090E09093BB0280931B
:102CC000BA0282E390E09093B9028093B8020E9426
:102CD0000E2991CF80910201F80180838091BA0280
:102CE00081838091B802828386CF40E250E0BC01AC
:102CF00012968D919C91C1D47ECFBC016F5F7F4FA6
:102D00004FE150E0FC0182819381E7D4D8018C939C
:102D100072CFBC016C5F7F4F4CE150E0FC018281BF
:102D20009381F6D4F3CF77D466CFFC0182818330D0
:102D300069F0843009F181115ECF80E21D928A959D
:102D4000E9F7108288E08183128255CF13968C9127
:102D50009AE0F92EFE0131966F01DF01EF2D1D92F1
:102D6000EA95E9F7B601F4D0D8018D93F601019008
:102D70000D92FA94E1F73FCF13968C919AE0349636
:102D8000DE01119601900D929A95E1F729853A8519
:102D90002115BCE53B0741F440910201509103012C
:102DA000452B11F430E020E03A872987BE016F5FA0
:102DB0007F4FE4D0F80180838ADE1DCFA5E0B0E02C
:102DC000E4EEF6E10C94A4309093F1038093F003C9
:102DD000811520E2920730F40E947D032596E2E0FF
:102DE0000C94C03080EF89838A8381E08B830E94BA
:102DF0000E298160782F9D838C8349815A816B8154
:102E00008D810E940B05EACFA5E0B0E0EAE0F7E192
:102E10000C94A4309093F1038093F003811520E289
:102E2000920730F40E9491032596E2E00C94C030A2
:102E300080EF89838A831B820E940E298160782F0C
:102E40009D838C8349815A816B818D810E940B0502
:102E5000EBCFCF93DF93EC01B1DF80911004909121
:102E60001104019728F4CE01CFDFDF91CF910895AF
:102E7000EFE9FFE03197F1F700C00000F2CF81E009
:102E8000089584E00895E82F862F90E06AE170E0CD
:102E90000E946330242F30E0220F331F280F391F88
:102EA0008E2F90E068E670E00E946330820F931FDF
:102EB000879608950F931F93CF93DF938430C0F4C8
:102EC0006430B0F44D30A0F4DEDF8C010E94153187
:102ED000C82FD0E0DC2FCC27C80101960E94153105
:102EE0009E01282BC901DF91CF911F910F91089569
:102EF00090E080E0F8CF0F931F93CF93DF93122FD2
:102F0000032F843070F4643060F44D3050F4BBDF34
:102F1000EC01602F0E942231612FCE0101960E94A8
:102F20002231DF91CF911F910F9108958432910545
:102F300028F489529E4F0C941531089580E008952D
:102F40008432910520F489529E4F0C9422310895C9
:102F50009B01883080F490E06AE070E00E9463306A
:102F6000BC0165507E4F4AE050E0C9010E94053126
:102F700090E080E008958FEF9FEF08959B018830E7
:102F800080F490E06AE070E00E946330BC0165501C
:102F90007E4F4AE050E0C9010E94403190E080E05D
:102FA00008958FEF9FEF0895AAE0B0E0EAEDF7E112
:102FB0000C949830609002017090030181E090E0E1
:102FC000909303018093020184E7A82E80E0B82E3D
:102FD00010E000E06501F12C1DC00E94410321E0DA
:102FE00030E08017110621F01CF0F4012591349196
:102FF0004E2D6F2D802F7FDF82E0880E911CE39491
:103000009DE0E912EACFF394EAE1CE0ED11CF4E0A0
:10301000FF1619F04601E12CE0CF0F5F1F4F88E645
:10302000A80EB11C04301105A9F6F5D2FE013196A7
:103030007F018AE011928A95E9F710E0B701812FAC
:103040009DDF1F5F1830D1F770920301609202017B
:103050002A96EEE00C94B430EF92FF920F931F93F8
:10306000CF93DF93EC018A017C01E60EF71ECE01BF
:103070008796CE15DF0529F4CDB7DEB7E6E00C94D0
:10308000BC30C03A21E0D20740F40E941531F8016B
:1030900080830F5F1F4F2196EACFF8011082F9CF8E
:1030A000B0E0A0E0E6E5F8E10C949E308C016A0106
:1030B000803A914080F480EA91E0801B910B861762
:1030C000970748F07801E60EF71EE801CE018796D3
:1030D000CE15DF0529F4CDB7DEB7E8E00C94BA30A1
:1030E000C03A21E0D20740F4FE01E01BF10BEC0DE9
:1030F000FD1D60810E9422312196E8CF462F20914C
:10310000BA023091BB02232B91F4703F39F4603F37
:1031100071F48091F0039091F1030895843038F4B4
:10312000743028F46D3018F4672FC4CE089590E001
:1031300080E0089580E1089585EB91E00895EF9295
:10314000FF920F931F93CF93DF93EC018A017C01D1
:10315000E60EF71ECE01855B9D4FCE15DF0529F4E7
:10316000CDB7DEB7E6E00C94BC30C53B21E0D2071A
:1031700040F40E941531F80180830F5F1F4F2196A4
:10318000E9CFF8011082F9CFB0E0A0E0EAECF8E175
:103190000C949E307C016A018C01060F171FEC0114
:1031A000CE01855B9D4FC017D10729F4CDB7DEB79F
:1031B000E8E00C94BA30C53B21E0D20740F4FE01B0
:1031C000EE19FF09EC0DFD1D60810E942231219650
:1031D000E7CFCF93DF93CBE4D2E060E0CE010E9453
:1031E00022312196C11584E0D807B9F7DF91CF913C
:1031F0000895A4E0B0E0EFEFF8E10C949E30F82ED3
:103200002FE0281708F49CC08FEF93E00E9415313F
:10321000811196C00BE412E0F11033C019821A82BA
:103220001B821C8278015FEFE51AF50AC8010E9433
:10323000153189831A82882309F482C0813009F00C
:1032400079C0680182E0C80ED11CC7010E94153107
:10325000E82E8A83882309F473C0C6010E941531C1
:10326000F82E8FEF8E0D8330D0F46801E3E0CE0EA0
:10327000D11CFB82FF2019F0CE01019613D68601E6
:10328000D1CF011544E0140709F45AC0C8010E94C7
:103290001531811101C0FA940F5F1F4FBDCF8BEF25
:1032A0008E0D833018F5C8010396FB826C01FF2058
:1032B00031F36801F4E0CF0ED11C0E9415318C83EC
:1032C0008823E9F28B819C8181302FEF920710F0E7
:1032D000982F882746E0E41629F057E0E51621F0FC
:1032E000B8DDCDCF6BDDCBCF8FDDC9CF84E0E81269
:1032F000C6CF6801E4E0CE0ED11CC80103960E943F
:103300001531FF20E9F08823D9F08150990B6FEF38
:1033100070E00E9463304F2D4150550B840F951F74
:10332000019708F4ACCFEFE9FFE03197F1F700C067
:103330000000F6CF60E0CE01019653D567019FCF24
:103340002496E8E00C94BA30B0E0A0E0EAEAF9E1B3
:103350000C949C308FEF9FEF4430510508F469C006
:1033600040918E0341FB882780F990E0880F991FD8
:1033700042FB002700F910E0000F111F000F111F82
:10338000802B912B40FBCC24C0F8D12C8C299D297B
:1033900043FB222720F9C22FE0E0DE2F53E0CC0FC1
:1033A000DD1F5A95E1F78C2B9D2B44FBAA27A0F932
:1033B000B0E0E4E0AA0FBB1FEA95E1F78A2B9B2B54
:1033C00045FBEE27E0F9F0E0A5E0EE0FFF1FAA9520
:1033D000E1F78E2B9F2B46FB222720F930E0B6E049
:1033E000220F331FBA95E1F7822B932B47FB22273D
:1033F00020F930E03695322F222737952795822BFA
:10340000932B20918F03322F3170F32EE82EF92A5F
:1034100026952170B22EBB0CA82EBF28C501BB0C6F
:10342000AA0BBB0BFB0180839183A283B38390E043
:1034300080E0CDB7DEB7EAE00C94B830CF92DF92EF
:10344000EF92FF928FEF9FEF4430510508F46AC06E
:10345000FB01C080D180E280F3800E948B068091C6
:103460008E03C0FA80F9B701A60176956795579546
:10347000479540FB81F9B701A60122E07695679553
:10348000579547952A95D1F740FB82F9B701A601D8
:1034900033E076956795579547953A95D1F740FB78
:1034A00083F9B701A601E4E07695679557954795AE
:1034B000EA95D1F740FB84F9B701A601F5E07695CE
:1034C000679557954795FA95D1F740FB85F9B70170
:1034D000A601A6E07695679557954795AA95D1F7E9
:1034E00040FB86F9B701A601B7E076956795579539
:1034F0004795BA95D1F740FB87F980938E03809169
:103500008F03D0FA80F9D1FACC24C0F8C0FA81F93F
:1035100080938F0380918E0390918F030E94250FDB
:1035200090E080E0FF90EF90DF90CF900895809141
:10353000F2039091F30317C60895DB01FC01329664
:10354000259134914217530758F0FC013496659148
:103550007491A901CD010E94F53090E080E00895BA
:103560008FEF9FEF08950F931F93CF93DF9302EF99
:1035700013E0D0E0C0E0CE01D9DCF80161918F0109
:10358000861711F0CE01DCDC2196C432D10599F703
:10359000DF91CF911F910F910895DA019C012E5F69
:1035A0003F4FF90145915491F90125913491A217AA
:1035B000B30750F0FC013496859194910E94F53048
:1035C000D2DF90E080E008958FEF9FEF08950F9392
:1035D0001F93CF93DF9302EF13E0D0E0C0E0CE0162
:1035E000A5DCF80181938F012196C432D105B9F78A
:1035F000CEE4D3E0FE0185919491009711F0FC0197
:1036000009952C96F3E0CE3DDF07A1F7DF91CF912E
:103610001F910F910895E2EFF3E0128E138E8FEA5F
:1036200090E09183808385E0848F28E833E13383C1
:10363000228322E330E0378B268B28EC30E0318F79
:10364000208F158E178E168E20E530E031A320A333
:1036500082A389DF0E948B0610928F0310928E0343
:10366000EFE8F3E080818460808380918E03909105
:103670008F030E94250FABCF0895EF92FF920F9317
:103680001F93CF93DF937C01EB018A016FEF70E012
:10369000CE010E94FE3024E433E0A4EDB3E090E0DC
:1036A00080E0AC014E5F5F4F0417150788F0F90109
:1036B00065917491E616F70630F48C0F9D1FFC019E
:1036C00071836083CA01245F3F4FA217B30749F794
:1036D000CDB7DEB7E6E00C94BC309C0184E493E007
:1036E000FC01A591B4912A173B0741F00C96E3E049
:1036F000843D9E07A9F78FEF9FEF0895FC01369652
:103700002591349121153105B1F3F90109950895F9
:103710000F931F93CF93DF93C4E4D3E0FE01259171
:1037200034918217930741F02C9623E0C43DD207D1
:10373000A9F70FEF1FEF15C0FE01389625913491C0
:1037400021153105B1F3CE01F90109958C01892BC1
:1037500041F4FE013A9685919491009711F0FC0195
:103760000995C801DF91CF911F910F910895809124
:103770000F048170089580910F04869581700895DB
:1037800080910F0482FB882780F9089580910F04AF
:1037900083FB882780F9089580910804909109049B
:1037A00008958832910538F48E319105E8F4049734
:1037B000A0F480E008958933910558F48D32910585
:1037C00010F48B97B1F780910D0482FB882780F964
:1037D00008C084369105B9F3ECCF80910D04829531
:1037E000817091E08927089580910D0483FB8827DB
:1037F00080F9F7CF80910D0485FB882780F9089523
:1038000080910D0486FB882780F90895CF93DF937C
:10381000EC0197FF09C0FB018281882329F033D096
:10382000CE019F77C0D08ED081E0DF91CF910895F7
:1038300090911704923071F48A3050F490E0099618
:103840006AE070E00E947430875A0C945D06089517
:103850008650FBCF2AC308958CE090E00E9415317A
:1038600090E0B0E0A0E08093170490931804A09338
:103870001904B0931A040895609117048CE090E045
:103880000C94223108950E9472278695817080934E
:103890001C040E9472278170809316048091170483
:1038A000813039F480911C04882319F089E30E9447
:1038B0005D060E94F30D80931B040E94060E0E9479
:1038C000160E80911704823021F158F48823C1F03C
:1038D0008130D1F08FE39CE90197F1F700C000003F
:1038E0000895843051F18530A9F78BE191E00E9471
:1038F000BD0385E290E00E94BD0388E290E006C02F
:1039000082EE0E947105E6CF88E193E00E94BD033C
:10391000E1CF80911604811103C083E50E945D060A
:1039200082EE0E9471058FE39CE90197F1F700C0D8
:10393000000087E50E945D06CDCF86EE0E945D0601
:1039400088E1F8CF80911704823011F148F4882380
:1039500081F0813091F080911B040C94030E089546
:103960008430F9F08530B9F788E290E00E94BD0319
:10397000F2CF82EE0E94FB05EECF8CE20E945D0644
:1039800080911C04882339F389E30E945D06E3CF0C
:1039900082EE0E94FB05809116048111DCCF83E545
:1039A000F4CF88E2F2CF0F931F93CF93DF938C0174
:1039B000CCE0D0E0C8010C2E02C0969587950A9401
:1039C000E2F78F7035DF2497CC3F8FEFD80791F760
:1039D000DF91CF911F910F9108950F931F93CF9374
:1039E000DF93EC018B01FB018281882381F00E942F
:1039F000F30DC33EFCE5DF0719F188F4C13EECE5A9
:103A0000DE07D1F081E0C23EFCE5DF0791F0B801AE
:103A1000CE01FCDEDF91CF911F910F910895C53E3D
:103A20008CE5D80789F070F085E0C03BFDE5DF0745
:103A300071F78093170402C0109217041DDFE7CFBF
:103A400082E0F7CF83E0F5CF84E0F3CFCF93DF932D
:103A5000EC01FB018281882309F464C1C330FDE5D8
:103A6000DF07E0F5CA3F9CE5D90730F49E012250FC
:103A70003C4524313105D8F50E94170F90938F03F0
:103A800080938E03C231ECE5DE0709F41FC108F014
:103A90006EC0C9308CE5D80709F4F2C008F03FC009
:103AA000C530ECE5DE0709F4DBC058F5C3308CE522
:103AB000D80709F4CDC008F0CFC080918E03816093
:103AC000C230DC4509F4AEC080918E0390918F0323
:103AD0000E94250F0E948B0680E009C0C53AEDE5E3
:103AE000DE0751F238F4C1369DE5D90729F2DF919E
:103AF000CF9108959E012D5A3D4523303105B8F7E9
:103B0000BBCF80918E038062C730FCE5DF0709F4EC
:103B100089C008F4B1C080918E03806483C0CD3029
:103B20009CE5D90709F4BAC070F480918E038E7FAA
:103B3000CB30FCE5DF0709F475C008F4A7C080911D
:103B40008E038D7F6FC0CF309CE5D90709F4B6C0D6
:103B500008F4A8C0C031FCE5DF0709F4B3C0C131E7
:103B6000DC4509F0B1CF80918E038F7B5BC0CF3FE6
:103B70009CE5D90709F4B4C098F5CA3FFCE5DF0716
:103B800009F472C0B8F4C4319CE5D90709F4B6C091
:103B900008F4A2C0C531DC4509F096CF80918E03B0
:103BA00082FB992790F921E0922790FB82F990FB04
:103BB00083F938C0CC3F8CE5D80709F477C008F406
:103BC00057C0CD3FECE5DE0709F474C080918F0348
:103BD0008360CE3FDC4509F077CF80938F0374CFAD
:103BE000C1368DE5D80709F496C068F4C130EDE51B
:103BF000DE0709F48CC008F477C0C230DD4509F057
:103C000063CF80E085C0CD3A9DE5D907E9F068F43F
:103C100090918E03892F8E7F90FF8160C53ADD459C
:103C200009F052CF80938E034FCFCE3A8DE5D8075F
:103C300089F1CF3ADD4509F047CF90918F03892F65
:103C4000877F93FF8860C9CF80918F038860C5CF3D
:103C500080918E038260E6CF80918E038460E2CFF4
:103C600080918E038860DECF80918F038160B5CF15
:103C700080918F038260B1CF80918E038061D2CF1B
:103C80000E948B0680918E038068CCCF80918E033A
:103C90008C60C8CF80918F03877F9FCF80918E03E8
:103CA0008B7FC0CF80918E03877FBCCF80918F03A5
:103CB0008E7F93CF80918F038D7F8FCF80918E03E6
:103CC0008F7EB0CF80918E038F7DACCF0E948B060C
:103CD00080918E038F77A6CF80918E03837FA2CFB2
:103CE00080918F038C7F79CF80918F03982F90954F
:103CF00091708E7F892B90FB81F96FCF0E948B068C
:103D000090918E03892F97FB87F980588BCF81E0A4
:103D10000E94AA0FD9CE90918E03892F8F7E94FF97
:103D2000806180CF81E0E3CEB0E0A0E0EAE9FEE18F
:103D30000C949F30E82FF0E0EC52FC4FD490282FE9
:103D400026952695269530E0F901EC58FB4F049115
:103D5000877010E0082E02C0159507950A94E2F7C7
:103D600001701127F901EC59FB4FE490F12C082E5A
:103D700002C0F594E7940A94E2F791E0E922FF2467
:103D8000F901EC5AFB4FC491D0E002C0D595C7951C
:103D90008A95E2F7C170DD270115110519F081EE52
:103DA0000E947105E114F10419F086EE0E9471057C
:103DB0008D2D0E945D06E114F10419F086EE0E943B
:103DC000FB050115110519F081EE0E94FB05CD2BB5
:103DD00019F08CE20E945D06CDB7DEB7E7E00C94E7
:103DE000BB30EF92FF921F93CF93DF93EC01162F1E
:103DF0008881882309F450C0813009F04BC0898143
:103E0000813099F47E0122E0E20EF11C8A810E9449
:103E10005D06E7012196812F815050F3EFE9FFE025
:103E20003197F1F700C00000F7CF823041F47E01F6
:103E300082E0E80EF11C8A810E947105EACF83308E
:103E400041F47E01E2E0EE0EF11C8A810E94FB0546
:103E5000E0CF843011F02196DDCF2A81229690E0C8
:103E600080E0FE0131962053330B2A30310548F0B3
:103E7000019780F2EFE9FFE03197F1F700C0000011
:103E8000F7CF6AE070E00E946330820F931F2981B0
:103E9000EF01E7CF49DFBECFDF91CF911F91FF90B8
:103EA000EF90089560E09DCF0895982F9F709A50ED
:103EB000963018F0805D38CF0895895AFCCF8091F4
:103EC0000401877F8093040182E00E940F0E80919D
:103ED000040184FF06C08F7E8093040182E00E946B
:103EE000F60D8091040185FF06C08F7D809304014B
:103EF00080E20E94F60D0C944D0E0895CF93DF934F
:103F0000EC01662319F082E00E94090ECE01905662
:103F1000811520E2920720F0905E8115904108F40F
:103F2000DD27CE010E947D03DF91CF9108959C0192
:103F30003056211540E2340720F0305E2115304123
:103F400008F499270C9491030895FC0123E0F69559
:103F5000E7952A95E1F7EE71FF27E454FD4F2081A4
:103F60003181AC014F70552781E090E002C0880F8D
:103F7000991F4A95E2F7662329F0822B932B9183B0
:103F8000808308958095909582239323F8CFFC0138
:103F900023E0F695E7952A95E1F7EE71FF27E454C3
:103FA000FD4F8F70992721E030E002C0220F331FB0
:103FB0008A95E2F7808191812823392381E0232BA0
:103FC00009F480E00895B0E0A0E0E9EEFFE10C9490
:103FD0009F30EC017B01D42E89018091040182FF86
:103FE0007DC02091E4023091E5022C173D0719F0C5
:103FF000209709F073C0909104019B7F9093040176
:1040000061E091FD10C08091E6029091E702A70166
:10401000481B590B61E080910501909106014817FA
:10402000590708F460E061708091040160FB81F938
:1040300080930401C90189DF0E94F30D81FF08C04C
:104040008091040180618093040182E00E94FC0D54
:104050000E94F30D85FF08C0809104018062809367
:10406000040180E20E94FC0D60910401669561707C
:10407000A8018091E4029091E50240DFD11012C0C6
:104080008091100490911104019708F5609104014A
:1040900066956170A8018091E4029091E50247DF86
:1040A0000EDF29C0B8018091E4029091E502A2DB05
:1040B000882331F3B8018091E4029091E502A0DBFE
:1040C0008111DECFCDB7DEB7E7E00C94BB30EFE96E
:1040D000FFE03197F1F700C00000D6CFCE0157DFE7
:1040E000A801682FCE0123DF8091E4029091E502C0
:1040F0008C179D07A9F2F092E702E092E602E2CF68
:1041000080910D0480FF1DC08091040182FF19C0C1
:104110000E940E292091E6023091E702AC01421B79
:10412000530B20910501309106014217530748F0C7
:104130002CED32E041E0BC018091E4029091E50277
:1041400042CF089590910401892F8E7F90FF816066
:1041500080930401B4CE0895809104018E7F8093F2
:104160000401ADCE08959093060180930501089552
:10417000CF92DF92EF92FF921F93CF93DF93EC01E8
:104180007B0180910D0480FD0AC011E0812FDF9139
:10419000CF911F91FF90EF90DF90CF9008950E94F4
:1041A0000E296C01F7018281882379F18091040145
:1041B00082FF07C02CED32E040E0B60190E080E0E5
:1041C00002DFCB31FCE5DF07C1F0CC312CE5D207B3
:1041D000D1F0CA313CE5D30709F4B4DFCE019056E3
:1041E0008115E0E29E0720F0905E81159041D8F4A1
:1041F0001092E5021092E402C8CF80910401816020
:1042000080930401EBCFA8DFE9CF809104018F7E7A
:10421000C13ED10531F0C53ED105A1F58091040123
:104220008F7D809304018091040180FFAECFB701A0
:10423000CE01B7DAF7011281882309F4B8C011233F
:1042400009F4AFC00E94F30D182F0E94190E812BA4
:104250008D7F99F11092E5021092E40280910D0495
:1042600081FD2BC060E0CE0170DEA70160E0CE01D1
:1042700045DE0E94190E8D7F0E942A0E82E00E9468
:10428000BF0E66C0CE019056811520E2920720F045
:10429000905E8115904138F68091040182FF75CFC0
:1042A000B701CE0168DA811170CF2CED32E040E029
:1042B000B60190E080E087DE68CF88E0F701ACEDE2
:1042C000B2E001900D928A95E1F71092DE02109211
:1042D000E0021092DF028091E4029091E502C8179B
:1042E000D90709F03FC0B701CE0184DA8823D1F1A4
:1042F0008091040181FD2EC08091E6029091E70239
:104300009601281B390B283C310560F50E94F30DFE
:1043100081FF08C08091040180618093040182E0E4
:104320000E94FC0D0E94F30D85FF08C080910401DE
:1043300080628093040180E20E94FC0D6091040180
:1043400066956170A7018091E4029091E502D6DD47
:1043500010E01CCFB7018091E4029091E50250DAA1
:104360008111CACF0E94F30D182F0E94190E812BC4
:104370009091040181FB91F9909304010E94190E20
:104380008D7F0E942A0ED093E502C093E402D09262
:10439000E702C092E60280910401846080930401E8
:1043A0006DCF970140E0B601CE010DDEEFCE1111C9
:1043B0001FCFEBCE8FE891E00197F1F700C000002E
:1043C000089581E00895FDCF089581E08093E9028A
:1043D0002198299A22982A9AEDDF2091E9024BEE42
:1043E00052E0FA018E2F841B821708F0089583B1E2
:1043F000869581701A9904C090E0892B8193F2CF41
:1044000092E0FBCFB0E0A0E0E8E0F2E20C949E3056
:10441000F12CE12C84E0C82ED12C8091E902F81611
:1044200030F08E2DCDB7DEB7E8E00C94BA300F2D0A
:1044300010E0E3B1E695E1701A993EC080E08E2B62
:10444000D801A551BD4FEC919E2F9370981791F113
:10445000EE0FEE0FE82BEC93EF70F0E0EE56FE4F10
:10446000E801C651DD4F80819881890F888320E063
:10447000843054F0F801E851FD4F80818F5F8083D4
:1044800060E08F2DA0DF21E088818D3F54F4F8019A
:10449000E851FD4F80818150808361E08F2D93DF53
:1044A00021E08881082E000C990BB6010E9474301F
:1044B0008883E22AF394B1CF82E0C1CF08951F939D
:1044C000CF93DF9380915703C091EC0281111BC001
:1044D000DF91CF911F91089511E01C0F1093EC0212
:1044E000D0E0CE016CE070E00E946330FC01E95046
:1044F000FD4F83819481892B29F0808191818923CB
:104500008F3FF9F4C12F80915703C81728F31092F9
:1045100057031092EC02DCCF18968D919C918F3F3F
:104520009807E9F061E0CADFCE016CE070E00E941C
:10453000633089509D4FFC01148213820E94160E35
:10454000E1CFCE016CE070E00E946330DC01A95045
:10455000BD4F16968D919C911797892BE9F220817A
:1045600031814281538164817581868197810E9466
:10457000FF0CDACF109259031092580320910801D2
:1045800030910901E0E8F2E090E080E02817390777
:1045900009F408954581411102C0148216820196E2
:1045A0003796F4CFA091F5025091F6024A2F54139A
:1045B00001C00895242F30E0F901EE0FFF1FE351F1
:1045C000FD4F608171816817790791F467E070E0B1
:1045D0000E94633080589D4F51E0FC0154834A1380
:1045E000E8CF2F5F3F4F237033272093F5020895C4
:1045F0002F5F3F4F422F4370DACF6F927F929F928F
:10460000AF92BF92CF92DF92EF92FF920F931F93E0
:10461000CF93DF93EC01DB0114968C9114978111F9
:1046200057C0A0905703F7EF6F2EF2E07F2E90E077
:1046300080E0B12C61E070E08A1508F047C0F3011A
:10464000C284D384ED90FC9011974FEF5FEF912CD3
:10465000292D30E08901000F111F0E0D1F1DF801DB
:10466000008111810115110531F0C016D10609F440
:10467000A9019394EDCF4F3F5407D9F1FB0102C03C
:10468000EE0FFF1F4A95E2F7BE2AAB0102C0440FAE
:10469000551F9A94E2F79A0121503109B216130678
:1046A00029F512962D913C9113976CE070E00E94D1
:1046B0006330FC01E950FD4F378326838EEF808302
:1046C0008183D187C08781E015968C93CE016ADF04
:1046D000DF91CF911F910F91FF90EF90DF90CF90DE
:1046E000BF90AF909F907F906F900895F3011482D8
:1046F00013820196FCE06F0E711C9ECFCF93DF9367
:10470000C091F5028091F6028C1305C0D8DE32DF2D
:10471000DF91CF910895D0E0FE01EE0FFF1FE3512E
:10472000FD4F20813181C90167E070E00E94633054
:10473000BC0160587D4FC90160DF2196C370E2CF94
:104740000F931F93CF93DF93DC012D913C91119731
:1047500040E090E080E0E82FF0E0EE0FFF1FE20F76
:10476000F31FC081D1812097B9F0FB010081118135
:1047700090E005C0CE17DF0709F441E09F5FE92F05
:10478000F0E0EE0FFF1FE00FF11F0190F081E02D30
:10479000309781F78F5FDFCF442349F0981708F4F3
:1047A000DB01CD01DF91CF911F910F910895B0E012
:1047B000A0E0F7CF80910701882321F180915A036F
:1047C00090915B030097F1F041D52091580330910F
:1047D000590328173907B0F49091F5028091F60239
:1047E000981751F08BDF10925903109258031092D2
:1047F0005B0310925A03089562DE10925B031092DD
:104800005A03B8CE089510925B0310925A03109287
:1048100007018091F6028093F502ACDE50CE089538
:1048200080910701882311F0EECF089581E08093F5
:1048300007010895AAE0B0E0E0E2F4E20C949430BD
:104840006C012B01FB011281873FFCE59F0751F4AE
:10485000112371F081E080930701812F2A96E2E114
:104860000C94B030883F9C4509F04CC0111148C0F1
:1048700000E812E0F12CE12C1986AA24A394B12CB3
:104880008091080190910901E816F90608F445C0E5
:10489000F2018281882309F461C1F985FF2309F4BB
:1048A0005DC1BCD490935B0380935A0380915703FE
:1048B000883010F591E0980F9093570398E0F2013B
:1048C000DE01119601900D929A95E1F790E06CE06F
:1048D00070E00E94633089509D4F28E0FE013196C0
:1048E000DC0101900D922A95E1F72FEF3FEFFC01DB
:1048F00031872087D386C28611E0F9851F27ADCF87
:1049000082DFABCF89EFC8168CE5D80609F0B0CFAF
:10491000112309F4ADCF84DFA0CFF80120813181CC
:1049200066246A94762C212C822D90E0FC01EE0FF7
:10493000FF1FE20FF31F408151814115510531F0F6
:10494000C416D50609F43C012394EECF312CFFEFB9
:104950006F167F0609F449C0F801448130900701C1
:10496000832D411180E0F82FF1703F2EF2018281FA
:10497000882309F492C0332009F48FC0B801C7011D
:104980000E94CC1B4C01F8018581811114C0950156
:10499000062C01C0220F0A94EAF78681822B8683B7
:1049A00080915803909159038815990520F49092AD
:1049B000590380925803C501022C02C0880F991F29
:1049C0000A94E2F70197F80126812817190669F47D
:1049D00080915A0390915B03009781F037D4881639
:1049E000990660F421E0F8012483F985F329F98719
:1049F0002FEFE21AF20A095F1F4F42CF2090F50213
:104A00008091F6028A8790E080E02A85221215C004
:104A10008017910751F3622C712CF301EE0FFF1FE9
:104A2000E351FD4FF182E0828FEF681A780AE3E0EC
:104A30006E2277246092F602D8CF622C712CF3019B
:104A4000EE0FFF1FE351FD4F8081918167E070E021
:104A50000E94633080589D4F4C01B80171DE009771
:104A6000A9F021E0FC0124838017910709F4BDCF50
:104A70002091F50222120AC08816990639F4930192
:104A80002F5F3F4F237033272093F502EFEF6E1A0D
:104A90007E0AF62DF3702F2EB8CFF801958086810F
:104AA00090E091101FC09501022C02C0220F331F0D
:104AB0000A94E2F7215031092817390729F44423D1
:104AC00009F44AC0C7016EDDC501062C01C0880F7C
:104AD0000A94EAF7982F9095F801868189238683B6
:104AE000392C83CF9C01062C02C0359527950A945A
:104AF000E2F7A90141705527BC0161507109862375
:104B00009723892B29F5452B19F182819381892BD4
:104B1000D9F01B821C821D821E82FEEFF983FA836C
:104B20007DD38160582F9D838C83F801828193818E
:104B30008F83988729813A814B816D817E810E9484
:104B4000FF0CF8011582C0CF60E0C701B7DCF9CFD8
:104B5000F22FF1709F2EB8CF932CB6CF9091F50223
:104B60008091F602981711F0C9DDC6CEA8DC10922C
:104B70005B0310925A03FEDCBFCEEBEFE80FEF337E
:104B800008F068C0F0E0ED58FE4C0C9487300E94AD
:104B9000A80F81E0089580917C02807F80937C0241
:104BA00081E080935C03089580910201909103015C
:104BB000892B79F30E945504ECCF90917C02892FC8
:104BC0008E7F90FF816080937C0280FDE2CF817FA9
:104BD00080937C02DECF90917C02892F8D7F91FFA4
:104BE000826080937C0281FFD4CF80917C028160BF
:104BF000EFCF90917C02892F8B7F92FF846080930E
:104C00007C0282FDF2CFC5CF90917C02892F877FF5
:104C100093FF886080937C0283FDE7CFBACF0E9428
:104C20008B0690918E03892F97FB87F9805880938C
:104C30008E03AFCF81E00E944F090E948B06A9CF5F
:104C4000895391E001C0990F8A95EAF7892FF3CF34
:104C50008D51F7CF80E0089580E00895FDCF08954D
:104C6000CF93C82F80915C03882331F0813089F085
:104C700010925C0380E00BC00E94F30D8232D1F7EA
:104C80008C2FEADF811114C08C2F77DF8170CF91D8
:104C900008950E94F30D823299F38C2FDFDF81118A
:104CA00005C0C43171F038F4CB3081F781E0EECF2C
:104CB00081E090E0EBCFC93221F0C833B9F380E056
:104CC000E5CF10925C03FBCFCF93DF93EB018631EE
:104CD0009C4509F03BC00E94F30D982F9A7A2091D1
:104CE0000C0420FF04C0382F347409F090E021FF39
:104CF00004C0382F317109F090E022FF04C0382F32
:104D0000387809F090E023FF03C0827209F090E048
:104D10008A81882389F081E0911101C080E080932D
:104D20005D0389E2911185E30E94940D0E944D0E6E
:104D300080E0DF91CF91089580915D03811104C0DF
:104D400089E20E949C0DF2CF85E3FBCF81E0F1CF99
:104D50000F931F93CF93DF93C42FD22FFC01828137
:104D60008823C1F04093600359D290935F038093EE
:104D70005E0380E28C0F883040F4C77081E001C090
:104D8000880FCA95EAF70E946906DF91CF911F91BB
:104D90000F91089510916003141331C080915E0348
:104DA00090915F0353D2883C910548F5C0E2CD0F46
:104DB0001D17B9F080E2810F883040F4177081E050
:104DC00001C0880F1A95EAF70E946E06C83048F4B1
:104DD00081E09D2F977001C0880F9A95EAF70E9495
:104DE0006906802F0E945D06C83078F6D77081E092
:104DF00001C0880FDA95EAF70E946E06C6CF80E2FE
:104E00008C0F883010F6C77081E001C0880FCA95FA
:104E1000EAF7F2CF0F939C01CB01233F4CE5340717
:104E200051F1A0F4283DFCE53F07F9F0293D4CE5A0
:104E30003407C9F1273D3C4589F406E221EE41EEF5
:104E400067ED7CE585DF80E00F910895253FFCE567
:104E50003F07E9F0B0F0263F3C45F9F0FC018281C4
:104E6000882339F110926003EFCF07E225EE45EE7B
:104E700068ED7CE5E7CF06E221EE40EE63EF7CE5EE
:104E8000E1CF07E225EE44EE64EF7CE5DBCF06E2FE
:104E900021EE42EE65EF7CE5D5CF07E225EE46EE4A
:104EA00066EF7CE5CFCF08E221E045EE69ED7CE5D9
:104EB000C9CF81E0C9CF9093B3018093B201089527
:104EC00090936603809365030895E0916503F091E4
:104ED0006603309729F00190F081E02D099508953F
:104EE00080E00895F2CF0895E0916503F0916603A4
:104EF000309799F020911601222359F020918E03CA
:104F000027FF07C0DC012C9111962C93119726E006
:104F10002C930280F381E02D09950895209163037D
:104F2000309164032817390771F0909364038093DC
:104F30006303E0916503F0916603309721F00680EA
:104F4000F781E02D09950895209161033091620366
:104F50002817390771F09093620380936103E09101
:104F60006503F0916603309721F00084F185E02D10
:104F700009950895FC01329680911601882321F04D
:104F800080918E039EE187FF96E080E0915008F4C7
:104F9000089521912223D1F38F5FF8CF662301F189
:104FA000209116012223F1F020918E0327FF1AC0D1
:104FB000462F4695469546954E3190F4677021E010
:104FC00030E002C0220F331F6A95E2F7840F911D73
:104FD000FC01828190E02823392381E0232B69F4AE
:104FE00080E00895FC01329608962191261721F061
:104FF000E817F907D1F7F4CF81E008959C01FC018F
:1050000032969FEF80E04191461751F09F3F19F48F
:10501000411101C0982F8F5F8630A9F79F3F09F497
:105020000895290F311D97FD3A95F901628308957E
:10503000FC01329608962191261303C0DF011197D7
:105040001C92E817F907B9F70895E62FE695E6955B
:10505000E695EE3168F4E80FF92FF11D677021E055
:1050600030E001C0220F6A95EAF78281822B8283A9
:105070000895E62FE695E695E695EE3170F4E80F93
:10508000F92FF11D677021E030E001C0220F6A9511
:10509000EAF7209582812823228308952091160122
:1050A000222331F020918E0327FF02C0CECF089536
:1050B000A5CF089520911601222331F020918E036F
:1050C00027FF02C0D6CF0895B3CF0895FC013296D2
:1050D00080911601882351F080918E0387FF06C0CE
:1050E0008EE1DF011D928A95E9F7089586E0F9CFF8
:1050F0000895FECF0895811105C081E08093670374
:10510000F8CF089582E0FACF83E080936703F1CF70
:105110000895F1CF089581E080936703EACF089561
:10512000FACF089508950895FECF0895089508953B
:10513000F9CF0895CF93FADF0E944E13F8DFC0E055
:105140008C2F0E948D12892B31F4CF5FC430C1F7B0
:1051500080E0CF91089581E0FCCF08951F921FB6A3
:105160001F9211248F939F93AF93BF9380916803F5
:10517000811113C080911D0490911E04A0911F0401
:10518000B09120044196A11DB11D80931D04909300
:105190001E04A0931F04B0932004BF91AF919F9170
:1051A0008F911F901FBE1F90189580912504843009
:1051B00031F10E94CB041092680388E190E020E472
:1051C0000FB6F894A895809360000FBE20936000FE
:1051D00083B7817F846083BF83B7816083BF789406
:1051E000889583B78E7F83BF0FB6F894A89580917A
:1051F0006000886180936000109260000FBE089587
:105200000E948B060C94CF04089582E084BD93E045
:1052100095BD9AEF97BD80936E0008952FB7F894CF
:1052200080911D0490911E04A0911F04B091200450
:105230002FBF08952FB7F89460911D0470911E043C
:1052400080911F04909120042FBF08959C014FB7B7
:10525000F89480911D0490911E04A0911F04B091B8
:1052600020044FBF821B930B089578941F921FB6A2
:105270001F9211248F939F93AF93BF9380911D042E
:1052800090911E04A0911F04B09120040196A11DCD
:10529000B11D80931D0490931E04A0931F04B0932E
:1052A0002004BF91AF919F918F911F901FBE1F90BF
:1052B000189581E08093E00080E28093D8001092FE
:1052C000C9008FE19EE40197F1F700C0000087E07C
:1052D00090EBDC0180932E0490932F04A093300474
:1052E000B093310488E19CE00FB6F894A8958093C0
:1052F00060000FBE90936000FFCF88E19CE00FB686
:10530000F894A895809360000FBE90936000FFCF43
:1053100080918C0308950895CF93DF93EC018091E1
:1053200016018823A9F180918E0387FF31C060E2C6
:1053300084E08093E9008FEF9091E800815095FD23
:1053400006C095ED9A95F1F700008111F5CF809197
:10535000E80085FF1AC08091160170E050E040E03F
:10536000811104C050E040E068E070E0CE0130D22E
:105370008091E8008E778093E80080E2FE01ACE641
:10538000B3E001900D928A95E1F7DF91CF910895F6
:1053900068E081E0CECF8093690370936B036093E4
:1053A0006A03809125048430F1F48093E9008FEF43
:1053B0009091E800815095FD06C095ED9A95F1F722
:1053C00000008111F5CF8091E80085FF0CC050E00E
:1053D00040E063E070E089E693E0FAD18091E80074
:1053E0008E778093E8000895BC0184E0D4CF0895BF
:1053F000BC0183E0D0CF08950895CF93FC016032C3
:1054000019F5809125048430F9F4C091E900CF703A
:105410002091EC00922F917020FD90E8C92B82E042
:105420008093E9008091E80080FF0BC050E040E0ED
:1054300060E270E0CF01CCD18091E8008E7780935C
:10544000E800CF70C093E900CF91089564CE08952D
:105450006091210481E0611101C080E055CE089582
:105460009091250481E0943009F080E0609121045E
:1054700050CE089542E061EC81E0FDD242E261EC61
:1054800084E0F9D242E261EC82E0F5D242E260ECE3
:1054900083E0F1D29091250481E0943009F080E01E
:1054A0006091210428CE089580912704833009F467
:1054B0005FC030F48130C9F1823009F49AC0089598
:1054C0008A3009F487C08B3009F46DC0893009F047
:1054D0004EC080912604813209F049C080912A048F
:1054E00090912B04009719F0029709F040C0809129
:1054F000E800877F8093E8008091E80082FF33C056
:105500008091F200823031F48091F100813011F00D
:10551000863021F48091F10080938C038091E80023
:105520008B778093E800DBD222C080912604813AF9
:10553000F1F48091E800877F8093E80080912A044D
:1055400090912B04892B59F460E28CE693E070E093
:10555000D9D18091E8008B778093E800089560E0CE
:1055600090E080E0F4CF809125048111C5CF0895AB
:1055700080912604813AD9F780912A0490912B04D6
:10558000892BA9F78091E800877F8093E8008091BC
:10559000E80080FFFCCF809116018093F10080919C
:1055A000E8008E77BECF80912604813201F780918A
:1055B0002A0490912B04892BD1F68091E800877FF3
:1055C0008093E8008CD280912804809316010C947B
:1055D0008B06089580912604813249F68091E80077
:1055E000877F8093E8007BD28091290480938D038C
:1055F000089580912604813A09F0B9CF8091E8009E
:10560000877F8093E8008091E80080FFFCCF809145
:105610008D03C3CF84B7877F84BF0FB6F894A89556
:1056200080916000886180936000109260000FBEDE
:1056300080E890E00FB6F894809361009093610049
:105640000FBE6ECD08959BD2E8D2E2EEF0E08081ED
:105650008460808378941DC508958AE091E030CC01
:10566000089580912504853029F4809125048530A2
:1056700011F0C6CD089599DD809123048823A9F304
:1056800059DD882391F38ED00E948B06EECFA0E2E5
:10569000B0E0ECE4FBE258C580912504843001F5CC
:1056A00083E08093E9008091E80082FF19C0809137
:1056B000E80090E085FF08C050E040E060E270E064
:1056C000CE010196D2D091E08091E8008B77809353
:1056D000E800992329F060E2CE0101960E9471143E
:1056E000A096E2E04DC501C00895292F332723304D
:1056F000310521F168F42130310509F449C0223027
:10570000310509F44AC090E080E030E020E029C093
:105710002132310581F122323105A9F7633071055B
:1057200090F7FB01EE0FFF1FEB55FE4F20813181FB
:105730006E557E4FFB01808190E013C09927813028
:10574000910599F0009741F08230910589F0039717
:10575000D1F6E4E8F4E002C0E0EDF4E0849190E0FA
:105760009F01FA01318320830895E4ECF4E0F6CF41
:10577000E2EAF4E0F3CF6330710528F6660F771F95
:10578000FB01E555FE4F2081318189E090E0E9CFB2
:1057900082E190E02FE235E0E4CF8BE590E024ED6C
:1057A00034E0DFCF84E089BD86E089BD09B400FE26
:1057B000FDCF8091D8008F7D8093D8008091E0004C
:1057C00082608093E0008091E00081FDFCCF08952D
:1057D000AF92BF92CF92DF92FF920F931F93CF931E
:1057E000DF936C01EB018A0199D1F82E811123C05E
:1057F0000115110539F0F80180819181C81BD90B81
:10580000C80ED91EB12CA12C2097A9F08091E800D8
:1058100085FD21C08091E8008E778093E800011516
:105820001105A1F0F80180819181A80EB91EB18205
:10583000A08285E0F82E8F2DDF91CF911F910F91DF
:10584000FF90DF90CF90BF90AF90089567D18823ED
:10585000D9F2F82EF0CFF60181916F018093F1001B
:105860002197FFEFAF1ABF0ACFCFAF92BF92CF926F
:10587000DF92FF920F931F93CF93DF936C01EB01A5
:105880008A014CD1F82E811123C00115110539F080
:10589000F80180819181C81BD90BC80ED91EB12C8B
:1058A000A12C2097A9F08091E80085FD21C080916E
:1058B000E8008B778093E80001151105A1F0F8014D
:1058C00080819181A80EB91EB182A08285E0F82E58
:1058D0008F2DDF91CF911F910F91FF90DF90CF908F
:1058E000BF90AF9008951AD18823D9F2F82EF0CF47
:1058F0008091F100F60181936F012197FFEFAF1ABC
:10590000BF0ACFCFFC0180912C0490912D04861703
:105910009707A0F06115710529F49091E8009E7732
:105920009093E80090E06115710551F4911108C061
:105930008091E80082FF32C080E00895BC01F2CF80
:10594000809125048823B1F18530B1F18091E80080
:1059500083FD2EC08091E80082FDEACF8091E800AF
:1059600080FFE1CF2091F20030E06115710519F060
:105970002830310558F091E02830310509F090E0E9
:105980002091E8002E772093E800CDCF819180937D
:10599000F100615071092F5F3F4FE7CF80912504DF
:1059A000882341F0853041F08091E80083FFC0CF2B
:1059B00081E0089582E0089583E00895FC018091DC
:1059C0002C0490912D0486179707A0F0611571059E
:1059D00029F48091E8008E778093E80090E06115CB
:1059E000710551F4911108C08091E80082FF33C025
:1059F00080E00895BC01F2CF809125048823B9F19D
:105A00008530B9F18091E80083FD2FC08091E800D6
:105A100082FDEACF8091E80080FFE1CF2091F20083
:105A200030E06115710519F02830310558F091E02A
:105A30002830310509F090E08091E8008E7780935E
:105A4000E800CDCF84918093F100319661507109C7
:105A50002F5F3F4FE6CF80912504882341F08530AA
:105A600041F08091E80083FFBFCF81E0089582E09C
:105A7000089583E00895982F953028F08F708093D3
:105A8000E90081E008959093E900242F762F50E0FB
:105A9000981731F07091EC002091ED005091F000DA
:105AA00021FD02C09F5FE8CF3091EB003E7F309335
:105AB000EB003091ED003D7F3093ED003091EB0035
:105AC00031603093EB007093EC002093ED00509325
:105AD000F0002091EE0027FDE5CF80E00895809151
