:100000000C943D030C9484030C9484030C9484039B
:100010000C9484030C9484030C9484030C94840344
:100020000C9484030C9484030C9484030C94E722B2
:100030000C94A3220C9417290C9484030C9484032D
:100040000C9484030C9484030C9484030C94D6289D
:100050000C9484030C9484030C9484030C94840304
:100060000C9484030C9484030C9484030C948403F4
:100070000C948403460946097E097E090D0A290A63
:100080007E0B7E0B360AA70AB60AB60A2D11471157
:100090004E11C912C91286119711AA11EB11F01154
:1000A000181229123F1242122C1B2C1B3E1B3E1B06
:1000B000351B3E1B3E1B3E1B2C1B2C1B3A1B3E1BA9
:1000C0003E1B3A1BAF20D6208522D6208522222136
:1000D00045218522422252220100010058020000DF
:1000E0000200020054020000030001005902000057
:1000F000040002003E02B323050001005A02000082
:100100000600020040020000070002005602000044
:10011000080001005B0200000900020042028E2379
:100120000A00020044028E230B00020046028E23C6
:100130000C00020048028E230D0002004A028E23AA
:100140000E0002004C028E230F0002004E028E238E
:100150001000020050028E231100020052028E2372
:10016000120002005C020000130002005E020000A8
:10017000FD377A585A000004E6D6B4460200210141
:1001800016000000742FE5A3E0033D014B5D003D28
:100190008889C65436C3174FE4E4F25B63E144BE7A
:1001A0001DDB2F37919FB7EED571698973AB7C0743
:1001B000D2A3C4FB5D0FF97C1AC3858BBCD758CA88
:1001C0003ECBCB95A3A2E63E47957F38B6BB5921DF
:1001D000ADBA44F56B07ED7B8B368988FF445359E4
:1001E000EA658D18FCB4E1202FE7188CC90A373C6A
:1001F000C2FA25B8D4F5138E9B8BFF325256B9CE76
:10020000A12F59A32355D8E0C728EFB76C9A620BEA
:100210006D047DFEE822977D661C8DC6BA4C5FD3C7
:100220003C26AE2BD81A1AAD2B33C0EB3FBA34F0B4
:1002300006130A752861F03FF295D9CD5C0E3B920A
:10024000073E0443CDF91570D9F358DCA3342ECA08
:1002500080BC1CEA3C887828C69CA27AD90482B269
:10026000BDBC6ECC6CA106B3DAC2D069430C84C7A6
:10027000E4F21220CD8223C8796D5B7E9CC3EA61D3
:10028000127D63107091B82FD77C4B99C9E4CB7E57
:100290002D803FE0146818684CC4AC5ECEAAD1F73C
:1002A00019326A44D0ADEEB55F5C891216916F6168
:1002B000508B6F7C79FF7E6E0FE153030F57B0AE0A
:1002C00000E24DC665EC360B19F7630278185AB692
:1002D0007AA95EF5B144A90D5A00000006B329C001
:1002E000D471CD270001E702BE0600009CE9F44B63
:1002F000B1C467FB020000000004595A000000006E
:1003000000000000000000000000000000000000ED
:1003100000000000000000000000000000000000DD
:100320007E0F00D4FFFFFFC7000000780000000030
:10033000000000002A2B2800000000000000000040
:100340000000000000000029000000002C1E3420E6
:10035000212224342627252E362D3738271E1F200C
:100360002122232425263333362E37381F04050651
:100370000708090A0B0C0D0E0F1011121314151695
:100380001718191A1B1C1D2F3130232D3504050693
:100390000708090A0B0C0D0E0F1011121314151675
:1003A0001718191A1B1C1D2F3130354C0501090275
:1003B000A10185020901A1000509190129051500FE
:1003C00025019505750181029501750381010501DE
:1003D000093009311581257F950275088106093894
:1003E0001581257F950175088106050C0A380215CF
:1003F00081257F950175088106C0C005010980A18E
:1004000001850319012AB700150126B7009501756A
:10041000108100C0050C0901A101850419012AA061
:1004200002150126A002950175108100C00660FF2B
:100430000961A1010962150026FF00952075088158
:10044000020963150026FF00952075089102C0057A
:10045000010906A101050719E029E7150025019505
:1004600008750181029501750881010507190029A8
:10047000FF150026FF009506750881000508190183
:100480002905950575019102950175039101C00932
:10049000025B00030100A0FA09040000010301014E
:1004A0000009211101000122400007058103080015
:1004B0000A090401000203000000092111010001E2
:1004C0002222000705820320000107050303200004
:1004D00001090402000103000000092111010001CB
:1004E0002281000705840320000A12011001000088
:1004F00000088CA65F670100010203011C0376005F
:10050000690061006C003A00660036003400630048
:100510003200620033006300000008035100450010
:100520005A00000010036B0062005F0065006C0061
:100530006D006F0000000403090414001A00080095
:10054000150017001C0018000C0012001300040016
:100550001600070009000A000B000D000E000F0036
:1005600028001D00E4001B00060019000500110012
:100570001000360037000000E300E2002C0200000B
:1005800000002A00E600015102511E001F00200059
:1005900021002200230024002500260027002B0034
:1005A00029002D002E000100010001002F00300065
:1005B00031003900010001000100010001000100CB
:1005C00001000100380000000100010001000000EE
:1005D00000004C000100010001004A0052004D00E3
:1005E0004B003A003B003C003D003E003F00500005
:1005F00051004F004E0040004100420043004400C3
:10060000450001000100010001000100010001009E
:1006100001000100010000000100010001000000D4
:1006200000000100010001000100010001000100C3
:1006300001000100010001000100010001000100B2
:1006400001000100010001000100010001000100A2
:100650000100010001000100010001000100010092
:100660000100010001000000010001000100000084
:100670000000010001000100010011241FBECFEFA6
:10068000D4E0DEBFCDBF04B603FE27C080914F0388
:1006900090915003A0915103B09152038730904B39
:1006A000A740B04BD1F410924F0310925003109218
:1006B00051031092520314BE84B7877F84BF0FB6D4
:1006C000F894A895809160008861809360001092F2
:1006D00060000FBEE0E0F8E3099511E0A0E0B1E0B2
:1006E000E4E9F9E502C005900D92AE36B107D9F7FD
:1006F00023E0AEE6B1E001C01D92AF34B207E1F7EE
:100700000E94F40B0C94C82C0C9400003F924F9262
:100710005F926F927F928F929F92AF92BF92CF9291
:10072000DF92EF92FF920F931F93CF93DF93CDB79A
:10073000DEB764970FB6F894DEBF0FBECDBF7C0165
:10074000DC0113964D915C91149711966C91119761
:100750008C910E94922B81110C94DC0B21E0F7010B
:10076000408151816281738184810E9432198C01A0
:10077000D70112968C91811105C0F70122812111B8
:1007800040C0BCC0809100018F3FB9F372E7C72E13
:1007900071E0D72EA12CB12C992493948091000163
:1007A000082E000C990B8A159B053CF3D601169672
:1007B0008C9116978823F1F019968D919C911A9738
:1007C0000817190739F48091700190917101081789
:1007D000190781F0F60197861487038781898111B3
:1007E00003C0C6010E946024C60106960E948124AF
:1007F00010924A03FFEFAF1ABF0A26E1C20ED11CC6
:10080000CDCFC80182519F45409708F090C08FEF2F
:1008100093E00E941F2C81117BC06EEED62ED00E6D
:1008200009E212E0DD2071F0011544E0140709F43B
:100830006FC0C8010E941F2C811101C0DA940F5FA4
:100840001F4FF0CF19821A821B821C8268015FEF52
:10085000C51AD50AC8010E941F2C89831A828823D1
:1008600009F456C0813009F044C0580182E0A80E56
:10087000B11CC6010E941F2C8A83882309F448C03A
:100880009FEF980F933060F4680193E0C90ED11C7C
:10089000C5010E941F2C8B8381112BC08601D6CFEE
:1008A000843011F06501FACFC5010E941F2CB82ECB
:1008B0006801A4E0CA0ED11CC80103960E941F2C37
:1008C000BB2031F1882321F190E001976FEF70E0B8
:1008D0000E94722C2B2D30E021503109820F931F82
:1008E0000197E0F2EFE9FFE03197F1F700C0000077
:1008F000F7CFCE0101960E948518D0CF00315FE579
:10090000150709F043C481E00E940E2B0E94081FC6
:1009100080914703877009F44FC7D70112968C91D5
:10092000882309F449C782E00E941F2B45C7003184
:10093000FFE51F0711F481E005C001314FE5140701
:1009400021F482E00E943C2BE1CF5801B7E5BB1AAD
:10095000EFEFAE16B10411F008F05CC08091000119
:10096000082E000C990B8A159B0514F4A092000127
:10097000C50166E170E00E94722C4C01AC014E583A
:100980005E4F6A01DA0150962C935097F7018281ED
:1009900016969C911697882371F11A961C930E93C4
:1009A00019979F5F16969C930E940B29D6011E965D
:1009B0009C938E931D9780914D0317968C93179758
:1009C00090914A0380914903892B18968C9318972C
:1009D000ED91FC911197940128583E4F309731F0DA
:1009E00054966D917C915597C901099510937101A9
:1009F000009370010FC09923D1F0FA0181898823F7
:100A0000B1F0C50166E170E00E94722C88589E4FDB
:100A10000E948124073FFCE51F0749F4D701129685
:100A20008C91882321F181E08093010141C1083F2D
:100A3000BCE51B0771F4F70182818823C1F0109295
:100A40000101109232021092310281E00E94D424FE
:100A50002FC1093FFCE51F0751F4D70112968C9175
:100A6000882329F0809101018823E9F2E8CF509092
:100A70000101552009F41CC1109235021092340274
:100A8000612CAA24A394B12C44244394C090340232
:100A9000D0903502B8E0CB16D10408F0D6C0C6011C
:100AA00065E070E00E94722C805A9D4FBE01655F28
:100AB0007F4FFC0180810E940026892B11F0712C50
:100AC000B9C0FE013B9680E090E033243A94282F91
:100AD000419151914115510551F00417150709F441
:100AE000382E01968430910591F724E002C08230BF
:100AF00030F3FFEF3F1619F3D70112967C90772061
:100B000009F449C0C60165E070E00E94722C805A69
:100B10009D4F4C01C50101C0880F3A94EAF7F401DA
:100B20009481892B8483A50102C0440F551F2A9507
:100B3000E2F79A012150310990E08F7728173907A1
:100B400009F077C080E00E94D424D40114968C91DF
:100B50001497806814968C93C60165E070E00E943B
:100B6000722C805A9D4FFC0182819381009719F06D
:100B70000E94FA190DC0BE016F5F7F4F8091340251
:100B80000E940026892B21F489859A850E94101ADB
:100B9000409233024FC0F50102C0EE0FFF1F2A95AD
:100BA000E2F73197C60165E070E00E94722CDC012B
:100BB000A05ABD4F14962C91149730E02F77E2176E
:100BC000F307B1F412968D919C911397009719F049
:100BD0000E945B190DC0BE016F5F7F4F8091340290
:100BE0000E940026892B21F489859A850E9471191B
:100BF000C60165E070E00E94722CFC01E05AFD4FD6
:100C00002481822F90E0032C02C0959587950A9449
:100C1000E2F780FF54CFA50101C0440F3A94EAF7F0
:100C2000942F90959223948397FF49CF903809F49D
:100C30001482752C672880913402909135020196B8
:100C4000909335028093340221CF80913302882320
:100C500059F00E940B299093320280933102109236
:100C60003302611055CE24C0611006C081E00E949D
:100C7000D4240E94C2241CC0F7018281882309F475
:100C800047CE0E940B299093320280933102E0916B
:100C90003002E73008F03CCE81E08E0F80933002C6
:100CA000F0E0EE0FFF1FEE5DFD4F1183008330CEAD
:100CB0008091590280FF67C00E940B296C01D70107
:100CC00012968C91882379F18091020182FF06C0EF
:100CD00040E0B60180E090E00E94FF2382E00E94A5
:100CE000DB290B31BCE51B0779F00C31ECE51E0765
:100CF00089F00A31FCE51F07B1F480910201982FB9
:100D0000909590FB80F909C08091020181608093E9
:100D1000020180C0809102018E7F8093020182E0F7
:100D20000E94DB2977C00832110538F40E31110515
:100D3000B8F40430110578F426C00933110538F4ED
:100D40000D32110590F40B32110579F01CC00436F8
:100D5000110559F018C08091590284FD14C009C0D2
:100D60008091590283FD0FC004C08091590282FD19
:100D70000AC0D70112968C91882309F4B5C18091DD
:100D8000020180FD75C1033F5CE5150741F190F458
:100D9000083D9CE51907E9F0093DACE51A0789F122
:100DA000073DBCE51B07B1F506E221EE41EE67ED1C
:100DB0007CE52CC0053FECE51E07E9F0B0F0063FEE
:100DC0002CE5120739F507E225EE46EE66EF7CE5E5
:100DD0001DC007E225EE45EE68ED7CE517C006E292
:100DE00021EE40EE63EF7CE511C007E225EE44EE14
:100DF00064EF7CE50BC006E221EE42EE65EF7CE598
:100E000005C008E221E045EE69ED7CE5C7010E94DE
:100E1000F4247ECDD70112962C91222309F46AC1C5
:100E200010923A020230BCE51B0708F463C1063198
:100E3000ECE51E0730F0C8018A5F9C45099708F071
:100E400059C10E945A2990938A02809389020031E5
:100E5000FCE51F0709F4C3C008F041C008304CE5A9
:100E6000140709F49AC0F0F404308CE5180709F46B
:100E700087C068F40230ACE51A0709F477C0033084
:100E80001C4509F0E5C080918902826076C0063079
:100E9000ECE51E0709F46EC008F07BC08091890262
:100EA00088606BC00C302CE5120709F485C068F42B
:100EB0000A305CE5150709F474C008F079C00E9497
:100EC000641B80918902806858C00E309CE5190728
:100ED00009F476C008F07FC0809189028BC00B3F77
:100EE000BCE51B0709F44FC018F50331FCE51F07EB
:100EF00009F47DC078F401314CE5140709F473C09E
:100F000002311C4509F0A4C00E94641B8091890233
:100F10008F7733C005318CE5180709F472C008F4E7
:100F200086C00A3F1C4509F093C080918A023EC0EA
:100F30000F3FBCE51B0709F45FC058F40D3FFCE50B
:100F40001F0709F444C008F43FC080918A02826000
:100F50002DC001304DE5140709F475C008F45DC0DB
:100F600002301D4509F074C060E06EC080918902B6
:100F7000816003C08091890280618093890268C08A
:100F80008091890211C080918A02826080938A02D6
:100F90005FC0809189028062F0CF80918902806475
:100FA000ECCF8091890288608460E7CF8160EECFCA
:100FB000809189028E7FE1CF809189028D7FDDCF84
:100FC00080918902877FD9CF80918A0218C0809151
:100FD0008A028D7FDBCF809189028F7ECECF809178
:100FE00089028F7DCACF809189028F7BC6CF809185
:100FF0008902877F8B7FC1CF80918A028D7F8E7F10
:10100000C5CF8091890282FB222720F991E09227A7
:1010100090FB82F990FB83F9B0CF80918A02982FE0
:10102000909591708E7F892B90FB81F9AFCF0E94B4
:10103000641B8091890287FB222720F991E0922787
:1010400090FB87F99ACF61E08EE090E00E942D2C12
:101050006091890210918A0284E090E00E942D2C18
:10106000612F82E290E00E942D2C0E94641B50CCE4
:101070009091590291FD04C020914903211183CE22
:1010800095FF21C02091380230913902A601421B00
:10109000530B9A0196FD02C081FD15C0283C310515
:1010A00090F420913602309137020217130759F459
:1010B00081FF05C080914A03826080934A03802F9C
:1010C0000E94A71B25CC1093370200933602D092C2
:1010D0003902C0923802809102018460809302013B
:1010E00082E00E941F2B14CC40E0B601C8010E9490
:1010F000FF230ECC0631BCE51B0709F04EC08091E2
:101100004903982F9A7A3091580230FF04C0482F33
:10111000447409F090E031FF04C0482F417109F098
:1011200090E032FF04C0482F487809F090E033FF88
:1011300002C0827261F42223A1F081E0911101C00A
:1011400080E080933B02992331F065E305C02223C0
:1011500041F010923B0269E285EF92E00E94402943
:1011600012C080913B02882311F085E301C089E21F
:10117000E5EFF2E09281891301C01282319692E08C
:10118000EB3FF907B9F70E94242AC2CB01318FE562
:10119000180709F0DACB82E0B7CB222389F10A35B0
:1011A000ADE51A0741F150F40115ECE51E07A9F071
:1011B0000E3D1C4529F50E946B29AACB0B352DE568
:1011C0001207D9F00C351D45D9F480918A0282FBB3
:1011D000882780F991E0892711C00E94641B5FEF86
:1011E00084E39CE0515080409040E1F700C0000053
:1011F0000E94B2288DCB81E001C080E00E94E929E5
:10120000F701828100811181882349F0C8010E9481
:10121000652AD82E682FC8010E94D72A04C0C801A9
:101220000E94A62AD82EB8018D2D0E94E9168C01A5
:10123000882EF701B280C580C2943FE0C32280911E
:101240004703877099F0BB2089F0812F807F80341D
:1012500021F080E2800F883048F082E00E941F2B4E
:10126000809147038770AA24A3948111A12C912E09
:1012700092942FE09222892D90E08C30910508F015
:101280003DC2FC01E65CFF4F0C94AB2C912F9F708C
:10129000812F807FD92E19F0D29490EFD922BB20D4
:1012A000B9F0DD2009F408C280E2800F883010F028
:1012B000811006C080914903D82AD092490305C005
:1012C00080914A03D82AD0924A030E94242AF4C16A
:1012D000802F0E946F1BDD2009F410C280E2800F76
:1012E000883010F0811004C08D2D0E94E22903C0C7
:1012F0008D2D0E94DB290E94242A00C2912F9F700D
:10130000812F807FD92E803219F0D29480EFD8229D
:10131000882029F0F1E08F1609F44DC058C0BB2099
:1013200071F1CC2031F121E0C21213C080918A0208
:1013300082FDE4C180914D03D82AD81609F4DEC19C
:101340000E940B2990934C0380934B03D0924D0342
:10135000D5C180915A02823060F0C8120AC00E9442
:10136000D02980914403D81609F44FC0D092440389
:101370004CC080914D038D290E94061BBFC1CC201B
:1013800079F080915A0241E0C41210C0823008F412
:10139000B5C1809149038D2109F4B0C10E945F2A33
:1013A0000E94D0298D2D0E94171BA8C18230C0F346
:1013B000C812F6CFA3C1BB2029F055E05C1508F494
:1013C0009DC123C084E08C1508F498C1EBCFBB20ED
:1013D000F1F0CC20D1F020E0D7014C9111965C9136
:1013E000119712966C91129713967C9113971496FD
:1013F0008C910E94321980915B0281FD5DC1F701E1
:10140000858180FF59C18F7085838D2DB5CFCC200C
:1014100049F2F9E38F1262C15CC1812F86958695EE
:10142000837019F0813059F069C1BB2019F0C801EF
:10143000937002C080E090E00E94DD235FC1BB207A
:1014400019F0C801937002C080E090E00E94C723A9
:1014500055C1802FBB2029F00E9430150E94F8133F
:1014600002C00E9422140E94F81348C1812F837089
:10147000A9F5B11043C1402F429546954770440FDE
:10148000440F202F2F7030E0C901042E01C0880FB7
:101490000A94EAF704FF08C02FE030E001C0220FF1
:1014A0004A95EAF7209501C020E0312F3695369510
:1014B0003370323051F070F440914E03313019F0F6
:1014C000822B842308C0842B05C0282B80914E03D7
:1014D000822701C0822B0E946A2B10C1BB2019F009
:1014E000812F817001C08695882309F407C1402FA0
:1014F000429546954770440F440F202F2F7030E0DF
:10150000C901042E01C0880F0A94EAF704FF08C03D
:101510002FE030E001C0220F4A95EAF7209501C084
:1015200020E0312F369536953370323051F068F423
:101530004091EC02313019F0822B842364C0842B5B
:1015400004C0282B8091EC023FC0822B5CC0212F6D
:101550002F70D22EBB2029F0822F0E943C2B802F8F
:101560000BCF802F0E94171B8D2DC4C0802F42EF00
:10157000841691F1481538F050EF851659F091EF27
:10158000891621F195C0A3EF8A1661F1B4EF8B168D
:10159000E9F18EC0BB2029F0E4E0EC1508F4AEC000
:1015A00004C0F5E0FC1508F4A9C0212F2F7181E0DB
:1015B00090E0A0E0B0E004C0880F991FAA1FBB1FF5
:1015C0002A95D2F72091EC0282271DC0812F8F71BE
:1015D000BB2009F48FC076C0812F8F71BB2009F426
:1015E00071C088C0BB2071F0212F2F7181E090E085
:1015F000A0E0B0E004C0880F991FAA1FBB1F2A9566
:10160000D2F701C080E00E940A2B78C090915A0264
:101610009230B8F1BB20F1F0809144030E94E2299E
:10162000809147038770843039F40E94032A812F08
:101630008F710E940E2B61C080915A02C81608F06B
:101640005CC0212F2F71D22E822F0E943C2B63E091
:101650008D2D10C02091490380914403822B8093EB
:101660004903C91650F00E94032A0E945F2A64E0D1
:10167000812F8F710E94542B40C081E00E941F2B4C
:101680003CC0BB2059F0412F4F71D42E842F0E94B3
:101690003C2B63E08D2D0E94542B30C081E00E94D2
:1016A0001F2B51E05C1550F582E00E941F2B26C0D5
:1016B000BB2059F0CC2021F0802F0E94A71B1EC018
:1016C000812F8F710E943C2B19C0CC2089F0893367
:1016D00029F480915E0290915F0204C080915C02C7
:1016E00090915D020E94BC23802F0E946F1B06C058
:1016F000812F8F710E940E2B01C0A12C88EF890DC4
:10170000843020F40E94F3230E947F18C8010E94B5
:101710001E1B811105C010923D0210923C0225C093
:10172000BB2019F0C110F7CF20C0C110F4CF20E0CA
:10173000D7014C9111965C91119712966C9112976A
:1017400013967C91139714968C910E943219809174
:101750005B0283FFE0CF80913C0290913D020297B3
:10176000D1F6802F0E94061CD6CFAA20A9F0809126
:10177000470380FD11C0F7011282859585958595F7
:101780000E943C2BC7010E948603809147038595E8
:10179000859585950E940E2B20E0D7014C911196DE
:1017A0005C91119712966C91129713967C911397F6
:1017B00014968C910E94321964960FB6F894DEBF8D
:1017C0000FBECDBFDF91CF911F910F91FF90EF9092
:1017D000DF90CF90BF90AF909F908F907F906F9051
:1017E0005F904F903F900895CF93DF93CDB7DEB7D2
:1017F000E4970FB6F894DEBF0FBECDBF84B7877FE6
:1018000084BF0FB6F894A89580916000886180939A
:101810006000109260000FBE90E080E80FB6F89470
:1018200080936100909361000FBE8BE298E29093E9
:101830006F0180936E010E94A213E0E6F2E080E067
:1018400090E0918380830196359688309105C9F7A1
:101850000E946B251092E2001092E1008091E0005E
:1018600081608093E0008091D8008F778093D800CA
:1018700019BC80916300816080936300109288029C
:10188000809163008E7F8093630081E08093880263
:101890001092E2001092E1008091D8008F7780933F
:1018A000D8008091D80080688093D8008091D800BB
:1018B0008F7D8093D80084E089BD86E089BD09B41E
:1018C00000FEFDCF1092EB021092E2021092E102B4
:1018D0001092E00242E060E080E00E94981F809158
:1018E000E1008E7F8093E1008091E200816080932F
:1018F000E2008091E20088608093E2008091E00045
:101900008E7F8093E0008091E20084608093E2000B
:1019100078948091EB028823A1F01091E9001F7068
:101920009091EC00892F817090FD80E8182B109227
:10193000E9008091E80083FD0E94CD1F1F70109385
:10194000E90082E084BD93E095BD9AEF97BD809356
:101950006E0086E60E94981584E60E94981581E341
:101960000E94981580E30E94981504E211E0EEE2CF
:10197000EE2EE1E0FE2EF80181918F010E94981574
:10198000E016F106C1F710928C0210928B021092B1
:10199000B1021092B00210928E0210928D0210923B
:1019A000B3021092B2021092900210928F02109223
:1019B000B5021092B402109292021092910210920B
:1019C000B7021092B60280E090E00E94272C8A3E77
:1019D0009E4F11F00E946B2982E090E00E941F2C24
:1019E0008093A3020E945A2990938A0280938902CD
:1019F0000E94AF158FE39CE90197F1F700C000004A
:101A00000E94AF158091B00280FF17C06FEF83E294
:101A100090E00E942D2C6FEF84E290E00E942D2C2C
:101A20006FEF85E290E00E942D2C6FEF7FEF80E05A
:101A300090E00E944B2C0E94B22883E090E00E942C
:101A40001F2C0E946A2B3D9A459883E290E00E94E9
:101A50001F2C833581F484E290E00E941F2C833395
:101A600051F485E290E00E941F2C91E0853909F045
:101A700090E0892F01C080E080FFDBC587E091E026
:101A8000909394028093930278EB272E72E0372E86
:101A90008E010F5F1F4F8091EB02853009F04CC023
:101AA00054E0E52E66E0F62E8091EB02853009F0D9
:101AB0003DC08091EB02843039F180E00E947F18B4
:101AC00010929502E8E1F0E020E40FB6F894A895B2
:101AD000E09360000FBE2093600083B7817F846035
:101AE00083BF83B7816083BF7894889583B78E7FE7
:101AF00083BF0FB6F894A8958091600088618093A9
:101B00006000109260000FBE8091E102882309F40A
:101B1000CBCF0E94AF15E0EBF2E081919191892B40
:101B200009F03BC52E163F06C1F7BECF0E94641BCD
:101B30000E94F3230E947F180E94AF15882359F05A
:101B40008FB7F8944091B8025091B9026091BA02EF
:101B50007091BB028FBFA0EBB2E0E4EAF2E0E12CAF
:101B6000F12C7E2D2D913D9181919191822793278A
:101B7000009779F160E0CC24C394D12CAC014C21C6
:101B80005D21452B09F16BA77CA72C213D2181E02C
:101B9000232B09F480E08DA70E940B298160782F08
:101BA0009FA78EA74BA55CA56DA58FA50E944B276F
:101BB000F701EE0FFF1FEC55FD4F80819181C82684
:101BC000D926D182C0821CC06F5FCC0CDD1C6A306C
:101BD000A9F63FEFE31AF30A44E0E416F10409F62C
:101BE0008FEF88AB89AB1AAA0E940B298160782FEE
:101BF0009CAB8BAB48A959A96AA98CA90E944B2719
:101C000086E0ECE9F2E0D80101900D928A95E1F7C7
:101C1000C0909E02D0909F02E090A002F090A1029E
:101C200010929E0210929F021092A0021092A102A6
:101C3000C11003C0DD2009F462C080919A02909126
:101C40009B020E94FC28FC0120919902222339F07A
:101C50008091060190E08E179F0760F050C0809140
:101C6000050190E06AE070E00E94722C8E179F07D9
:101C700018F045C02F3F19F02F5F20939902CC2018
:101C800059F00E94E2141C1414F461E001C06FEFDB
:101C90000E94692C80939E02DD2059F00E94E2147C
:101CA0001D1414F461E001C06FEF0E94692C809351
:101CB0009F0280919E02882311F120919F0222238E
:101CC000F1F0082E000C990B65EB70E00E94722C6D
:101CD000992319F090939E0203C081E080939E02A5
:101CE000822F220F990B65EB70E00E94722C9923D2
:101CF00019F090939F0203C081E080939F02E1104E
:101D000003C0FF2009F462C080919702909198026D
:101D10000E94FC28FC0120919602222339F0809138
:101D2000040190E08E179F0760F050C0809103017E
:101D300090E06AE070E00E94722C8E179F0718F006
:101D400045C02F3F19F02F5F20939602EE2059F0E7
:101D50000E94A7141E1414F461E001C06FEF0E94EA
:101D6000692C8093A002FF2059F00E94A7141F1431
:101D700014F461E001C06FEF0E94692C8093A1020E
:101D80008091A002882311F12091A1022223F1F079
:101D9000082E000C990B65EB70E00E94722C9923C1
:101DA00019F09093A00203C081E08093A002822FDB
:101DB000220F990B65EB70E00E94722C992319F0A9
:101DC0009093A10203C081E08093A10280919E02C2
:101DD00081110BC080919F02811107C08091A002E8
:101DE000811103C08091A10281110E94F813CB825E
:101DF000DC82ED82FE8286E0F801ACE9B2E001907F
:101E00000D928A95E1F70E94F3239091A20289171F
:101E100031F00E94F3238093A2020E947F188091E8
:101E2000EB02843009F037CE83E08093E9008091A3
:101E3000E80082FF30CE8091E80085FF21C00E943B
:101E4000131F81111BC0B0E2CB2ED12C780109C029
:101E50008091F100F70181937F01F1E0CF1AD10861
:101E600069F08091E80085FDF3CF8091E8008B77E1
:101E70008093E8000E94131F882399F391E001C02A
:101E800090E08091E8008B778093E800992309F433
:101E900002CEE090BE02F090BF028981E114F1040D
:101EA00061F08E3F09F075C38A81833008F4C9C19F
:101EB0008550833008F06DC3C4C18B3009F4ABC1C9
:101EC00008F5853009F482C0A8F48230B9F130F405
:101ED000813009F05CC31A8289E07BC2833009F447
:101EE00064C0843009F053C34C816B818A810E94A5
:101EF000FA266AC0873009F44AC308F048C30E9432
:101F0000692647C3803109F4CAC060F48D3009F4F2
:101F10006AC008F466C08E3009F469C08F3009F4D5
:101F200090C035C3823109F4BFC008F4BBC083310F
:101F300009F4E3C08E3F09F484C129C38A81823049
:101F400009F46EC3833089F0813009F020C32FB7C4
:101F5000F8948091B8029091B902A091BA02B09120
:101F6000BB022FBFBB83AC832FC08091BC0290917A
:101F7000BD02892B09F40DC38091B0029091B1028A
:101F80009B838C838091B2029091B3029D838E8358
:101F90008091B4029091B5029F8388878091B602A8
:101FA0009091B70299878A87F4C28A81823009F0BA
:101FB000EEC26B817C818D819E810E94B12C86E274
:101FC00090E00E942D2CE5C29D8331C32D813E817E
:101FD0003227232732274C816B818A810E942C264D
:101FE000D8C280E175C281E08A8387EDF2C1EA80C0
:101FF000FB80FE24EF24FE24AC80B12C2DE1A21640
:10200000B10408F0C6C26801C701875D9D4F960103
:10201000201B310B2A153B0508F0BBC237EDE31638
:1020200031E0F30628F40E941F2CF601848302C0DD
:10203000F6011482FFEFEF1AFF0A2FEFC21AD20A3D
:10204000E3CF8091BC029091BD02892B09F4A1C21B
:10205000EA80FB80FE24EF24FE24CC80D12C3DE1DD
:10206000C316D10408F095C25801C701875D9D4F82
:102070009501201B310B2C153D0508F08AC247ED58
:10208000E41641E0F40620F4F50164810E942D2C51
:10209000FFEFEF1AFF0A2FEFA21AB20AE6CF0E9453
:1020A000F02577C284E014C2EA80FB80FE24EF248E
:1020B000FE24AC80B12C3DE1A316B10408F069C246
:1020C0006801C70187969601201B310B2A153B0535
:1020D00008F05FC240E4E41641E0F40628F40E94F0
:1020E0001F2CF601848302C0F6011482FFEFEF1A61
:1020F000FF0A2FEFC21AD20AE4CFEA80FB80FE2447
:10210000EF24FE24AC80B12C3DE1A316B10408F00D
:1021100040C240E4E41641E0F40608F03AC280E42C
:1021200091E08E199F098A159B0508F432C2370188
:1021300087E2680E711C8091BC029091BD02892BD0
:1021400011F068015FC0E0FE0FC0C70186960E94D3
:102150001F2C90E0982F88272D81822B81159C457C
:1021600031F48FEF8D8303C0C12CD12C03C0CC245C
:10217000C394D12CC5018E0D9F1D450180FF1BC04E
:10218000F1E08F1A910875E0472E512C4C0E5D1E20
:10219000480C591CC3018A0D9B1D0E941F2CF20183
:1021A000208130E0322F2227282B21153C4519F4BD
:1021B0008FEFF2018083F801EC0DFD1D2FEFCF01B1
:1021C000801B910B8815990508F0BBCF848190E0A6
:1021D000982F88273581832B81159C4511F4248302
:1021E00025833296ECCF40E4E41641E0F40620F477
:1021F000F60164810E942D2CFFEFEF1AFF0A2FEFEA
:10220000C21AD20AC70187969601201B310B2A15E4
:102210003B0548F3BEC18091BC029091BD02892B61
:1022200009F4B7C1C8010E94721F3FEF41EE84E07C
:10223000315040408040E1F700C000000E94B228C9
:10224000A8C1EA818E2F90E08E30910508F0A1C1DF
:10225000FC01EA5BFF4F0C94AB2C88E0E8E1F1E075
:10226000DE01919601900D928A95E1F780E2F801E6
:1022700011928A95E9F784E0898388E0FE01B1969E
:10228000DE01159601900D928A95E1F782C18CE8E6
:10229000898381E08A831B821C827BC18C8190E0D0
:1022A000982F88272B81820F911D092E000CAA0BD5
:1022B000BB0B55E0880F991FAA1FBB1F5A95D1F77A
:1022C000AC01BD01405E5F4F6F4F7F4F481759070C
:1022D0006A077B0708F45DC18C38F1E09F07A10510
:1022E000B10508F056C14D3821E05207610571056E
:1022F00020F04CE851E060E070E0481B590BBC0155
:1023000060597E4FC8010E94062C43C140E250E054
:102310006FEF70E0C8010E94C12C8091BC028983DC
:10232000EA821B821C8281E08D8389E080C181E08A
:1023300090E09093BF028093BE0282E390E090937E
:10234000AF028093AE020E940B299093AD0280935E
:10235000AC021FC1EF28A9F1F090B302F1FAFF24FB
:10236000F0F88091B002F8228091AC029091AD0219
:102370000E94FC2885369105F0F0FF20E1F00E94D4
:102380000B299093AD028093AC028091AE029091A4
:10239000AF0201979093AF028093AE02892B89F42C
:1023A0001092BF021092BE0281E090E09093BD02B5
:1023B0008093BC0206C082E390E09093AF028093CA
:1023C000AE028091BC0289838091BE028A83809193
:1023D000AE028B83DEC01092BD021092BC02D9C047
:1023E000EB80FC8040E250E06FEF70E0C8010E949B
:1023F000C12C28ED30E0A0E7B1E080E090E0AC0136
:102400004E5F5F4F4132510508F0C3C0F90165913D
:102410007491E616F70630F4F801E80FF91F71839E
:102420006083CA01285F3F4FA217B30741F7B1C0CD
:102430002B813C8188ED90E0FC014591549124175B
:10244000350709F4C0C0089641E080379407A1F72A
:102450009EC08B819C8138EDE32E30E0F32EF70196
:10246000259134918217930709F489C0E8E0EE0EB4
:10247000F11CF0E7EF16F1E0FF0689F788C00E9433
:10248000AF2587C08B81823029F1A8F48823C9F059
:10249000813009F07EC08C812AE0F22E6E01F1E2DB
:1024A000CF0ED11CF6012F2D11922A95E9F7B60116
:1024B0000E9416263FC0833071F1843009F443C076
:1024C00068C080E2F80111928A95E9F788E0898373
:1024D0008A835FC08C819AE0FE013596DE01919679
:1024E00001900D929A95E1F7883080F490E06AE0CF
:1024F00070E00E94722CBC0167577E4F4AE050E0AA
:10250000CE0181960E94512C80E001C08FEF89831B
:102510000E94A2133EC08C819AE0F92E6E0131E236
:10252000C30ED11CF6012F2D11922A95E9F7B601A1
:102530000E9400268983F601DE01129601900D9219
:10254000FA94E1F726C08C819AE0FE013596DE010F
:10255000919601900D929A95E1F78830C0F490E041
:102560006AE070E00E94722CBC0167527E4F4AE024
:1025700050E0CE0181960E94512C80E009C0C70135
:102580000296FC01259134912D31310588F18FEFB0
:102590008983C8010E94721F7ECAE9BCF9BC09B4D4
:1025A00000FEFDCF8091D8008F7D8093D800809170
:1025B000E00082608093E0008091E00081FDFCCF2C
:1025C0000E94641B71CA9C012E5F3F4FF901459127
:1025D000549140325105D8F6F90145915491FC01CE
:1025E000349665917491CE0102960E94B82CC5CFA5
:1025F000FC0145915491F701349685919491BE0167
:102600006B5F7F4F0E94B82C0E949225F70136968F
:1026100085919491009709F4B0CFFC010995ADCF55
:1026200086E290E00E941F2C1B821C821D828E83FA
:10263000B0CF60E086E290E00E942D2C0E946926D7
:102640000E94F02563E583E290E00E942D2C63E375
:1026500084E290E00E942D2C65E985E290E00E94E2
:102660002D2C0CCA9091890292FF0DC0282F287141
:10267000283019F4877F846006C0282F2471243005
:1026800011F48B7F886093FF0DC0282F28712831AB
:1026900019F4877E846106C0282F2471243111F437
:1026A0008B7E886120918A0220FF0DC0382F3871FF
:1026B000383019F4877F816006C0382F317131308E
:1026C00011F48E7F886021FF0DC0282F28712831DA
:1026D00019F4877E816106C0282F2171213111F400
:1026E0008E7E886194FD877E08959C013A95211520
:1026F0003F4138F5DC01AA27B270AC014427547081
:102700009C012227387094FF0FC090FF02C080E127
:1027100001C080E0AB2B09F08062452B09F080649A
:10272000232B69F080680BC0892F8170AB2B09F0D7
:102730008260452B09F08460232B09F08860FB013F
:10274000099408958F929F92AF92BF92CF92DF9299
:10275000EF92FF920F931F93CF93DF93CDB7DEB726
:102760002A970FB6F894DEBF0FBECDBF02E711E087
:10277000E12CF12C81E5C82E8AE1D82E9CE7A92E08
:102780009AE1B92E21EA822E29E1922EF801D18216
:10279000C082B382A28295828482F58AE48ABE01D5
:1027A0006F5F7F4F8E2D0E941626892B29F4898515
:1027B0009A85F801938B828BFFEFEF1AFF0A0A5E6E
:1027C0001F4F88E0E816F10409F72A960FB6F8942F
:1027D000DEBF0FBECDBFDF91CF911F910F91FF9054
:1027E000EF90DF90CF90BF90AF909F908F90089523
:1027F0000E940B2920919E02211104C020919F026A
:10280000222321F090939B0280939A022091A002B0
:10281000211104C02091A102222321F0909398025B
:1028200080939702E0919302F0919402309749F0DF
:1028300082E080939C020480F581E02D8CE992E097
:1028400009940895803F39F480919F0287FF6AC000
:1028500010929F0267C0813F29F480919F02181651
:10286000BCF360C090919E02823F29F497FF5AC04A
:1028700010929E0257C0833F19F41916CCF352C030
:102880009091A002893F31F419160CF04BC01092C0
:10289000A00248C08A3F19F497FF44C0F8CF8B3F8D
:1028A00039F48091A10287FF3DC01092A1023AC085
:1028B0008C3F29F48091A1021816BCF333C0843FE9
:1028C00021F480919D028E7F17C0853F21F4809175
:1028D0009D028D7F11C0863F21F480919D028B7FE8
:1028E0000BC0873F21F480919D02877F05C0883F00
:1028F00031F480919D028F7E80939D0213C08D3FA5
:1029000021F48091D5028E7F0BC08E3F21F48091FF
:10291000D5028D7F05C08F3F29F48091D5028B7F32
:102920008093D50280919E02811106C080919F0202
:10293000811102C0109299028091A002811106C0FB
:102940008091A102811102C0109296020895809197
:10295000D50280FF08C06091130170E075956795FE
:102960007595679523C081FF06C06091130170E0E3
:10297000759567951BC082FF04C06091130170E0DC
:1029800012C0609196026623A9F02091120162178D
:10299000A0F78091130170E090E00E94722C622FEA
:1029A00070E00E94972C6038710540F46115710544
:1029B00019F406C061E070E0862F08958FE708954E
:1029C00081E008958091D50230914602209147021E
:1029D00080FF0CC08091150190E0632F722F0E9440
:1029E000722C969587959695879530C081FF0AC081
:1029F0008091150190E0632F722F0E94722C9695A2
:102A0000879524C082FF08C08091150190E0632F54
:102A1000722F0E94722C1AC060919902611103C03A
:102A2000832F922F13C040911401641768F780918F
:102A3000150170E090E00E94722C632F722F0E94AB
:102A4000722C642F70E00E94832CCB01803891059A
:102A500018F4009719F008958FE7089581E008951C
:102A6000803F21F40E94E214819504C0813F29F443
:102A70000E94E21480939F020895823F21F40E94F5
:102A8000E214819504C0833F29F40E94E2148093EC
:102A90009E020895893F19F40E94A71405C08A3F39
:102AA00031F40E94A71481958093A00208958B3F72
:102AB00021F40E94A714819504C08C3F29F40E9440
:102AC000A7148093A1020895843F21F480919D0270
:102AD000816017C0853F21F480919D02826011C002
:102AE000863F21F480919D0284600BC0873F21F4D2
:102AF00080919D02886005C0883F31F480919D02DD
:102B0000806180939D0208958D3F21F48091D502CC
:102B100081600BC08E3F21F48091D502826005C098
:102B20008F3F29F48091D50284608093D502089567
:102B3000F894E82FE295EF70F0E031A1282F2F7084
:102B400081E090E001C0880F2A95EAF7982F9095D0
:102B5000932391A392A1892B82A3789408959F92A5
:102B6000AF92BF92CF92DF92EF92FF920F931F939B
:102B7000CF93DF9300E211E0CBE8D2E083E9E82EC7
:102B800082E0F82E912CCC24C394D12CB801D8012A
:102B90008C91F894E82FE295EF70F0E021A18F700E
:102BA000A60102C0440F551F8A95E2F7CA01922F71
:102BB000982B91A392A18095892382A3789400C039
:102BC000E4E2F1E020E030E0A12CB12C4191842F2F
:102BD00082958F7090E0DC0190968C9190E04F7020
:102BE00002C0959587954A95E2F780FD08C0C60119
:102BF000022E02C0880F991F0A94E2F702C080E0FB
:102C000090E0A82AB92A2F5F3F4F2A303105F1F60C
:102C10000F5F1F4FFB0180810E949815F0EAFA9523
:102C2000F1F788819981A816B90621F0B982A882A6
:102C300081E001C080E0982A2296EC16FD0609F09A
:102C4000A5CF992049F081E08093C2020E940B2910
:102C50009093C1028093C0028091C202882351F1F7
:102C60008091C0029091C1020E94FC28069710F149
:102C700080918B0290918C029093B1028093B0026C
:102C800080918D0290918E029093B3028093B20254
:102C900080918F02909190029093B5028093B4023C
:102CA00080919102909192029093B7028093B60224
:102CB0001092C202809100018F3F61F1F12C20C07F
:102CC000CE0166E170E00E94722C8E589E4FDC01AE
:102CD0005296CD90DC905397C114D10421F4C0904A
:102CE0005602D0905702CE0166E170E00E94722C2D
:102CF0008C010E581E4FF8018681811110C0F3948B
:102D0000CF2DD0E080910001082E000C990B8C177C
:102D10009D07B4F68091010181111AC02DC08585EF
:102D200096850E94FC28C816D90648F7D801519606
:102D30008C91811103C0C8010E946024CE0166E11C
:102D400070E00E94722C88589E4F0E948124D7CF39
:102D50008091310290913202009771F00E94FC281C
:102D600020915402309155022817390728F481E048
:102D70000E94D4240E94C2248091590280FF1CC06A
:102D80008091020182FF18C00E940B292091380215
:102D900030913902AC01421B530B20911601309146
:102DA00017014217530740F041E0BC018091360201
:102DB000909137020E94FF23892DDF91CF911F91BF
:102DC0000F91FF90EF90DF90CF90BF90AF909F90CA
:102DD0000895CF93DF930E942F27EC01823891054D
:102DE00059F1A0F48133910509F473C040F489329C
:102DF000910509F467C08A9709F472C084C08533CD
:102E0000910509F458C0C997B9F07DC0833E91057A
:102E100071F138F4803E9105B1F0823E910511F1D7
:102E200072C0863E9105B9F1873E9105C9F1843E95
:102E3000910509F068C024C08091890280FD5DC0C1
:102E400081FD5BC060C08091890280FD50C080918F
:102E50008A0280FF50C18091890284FD4AC1C3EE7D
:102E6000D0E049C18091890282FF45C1F4CF8091B1
:102E7000890282FD3FC080918A0280FD3EC0EBCF77
:102E800080918A0281FF37C18091890284FD31C11E
:102E9000C7EED0E030C18091890283FF2CC1F4CF0E
:102EA0008091890283FD2CC080918A0281FFECCF42
:102EB000C4EED0E020C18091890285FF1CC1C9E227
:102EC000D0E019C18091890285FF15C1C5E3D0E02A
:102ED00012C18091890286FF0EC1CAE2D0E00BC107
:102EE0008091890286FF07C1C1E3D0E004C1C9E334
:102EF000D0E001C1C2EED0E0FEC0C0EED0E0FBC029
:102F0000C6EED0E0F8C0C11521E5D20708F069C0CF
:102F1000C11580E5D807F8F0CE01F4E096958795C5
:102F2000FA95E1F7282F23703C2F337081E090E071
:102F300002C0880F991F3A95E2F79C68922BCF70D8
:102F4000C695C695D0E0A5E0CC0FDD1FAA95E1F7A8
:102F5000C82BD92BD0C0C83ED10560F5C03ED105E5
:102F600008F0C9C0C83AD105B0F4C53AD10540F05F
:102F7000C55AD0E0C25DDE4FC881D0E0D064BBC08E
:102F8000C130D10509F4B7C008F4B3C0C430D105CD
:102F900008F4AFC0B0C0CF3BD10508F0AAC0C85AF2
:102FA000D0E0CC0FDD1FCF5CDE4F0990D881C02D63
:102FB000D464A1C0C11520E2D20758F4C11581E044
:102FC000D80708F098C0C03FD10508F492C0D0657A
:102FD00092C0C11520E4D20708F48BC0DF70D06A1C
:102FE0008AC0C11585E5D80708F046C0C11524E59B
:102FF000D20728F0DC2FCC27C46FD06A7CC0C11563
:1030000083E5D807C0F0CE018370992721E030E036
:1030100002C0220F331F8A95E2F78C2F8695869582
:10302000C82FD0E065E0CC0FDD1F6A95E1F7C22B19
:10303000D32BDA6860C0C11522E5D20728F4DC2F53
:10304000CC27C16FD06A57C0CE018370992721E089
:1030500030E002C0220F331F8A95E2F78C2F86954D
:103060008695C82FD0E075E0CC0FDD1F7A95E1F78B
:10307000C22BD32BDC683FC0C11589E5D807B8F453
:10308000C11528E5D20728F0DC2FCC27C06FD06A05
:1030900032C0C11586E5D80760F58C2F0E94321327
:1030A0008F71C82FD0E0DC2FCC27D06224C0C1158F
:1030B0002AE5D20780F48C2F8F700E94321394E09F
:1030C000D695C7959A95E1F7CF70D0E0DC2FCC2745
:1030D000D069C82B10C0CE0190568115904248F49B
:1030E0008D2F8F710E943213DD27D0628F71D82B04
:1030F00002C0C0E0D0E0CE01DF91CF91089581FF02
:1031000002C0459A089545980895BF92CF92DF92E4
:10311000EF92FF920F931F93CF93DF93EC012881DF
:10312000222309F495C0213009F03FC08981813004
:1031300039F48E010E5F1F4F8A810E94061C08C061
:10314000823041F48E010E5F1F4F8A810E94A71BBF
:10315000E8017CC0833039F48E010E5F1F4F8A81F5
:103160000E946F1BF5CF843011F021966FC02A8129
:10317000229680E090E030E0205331092A3031057A
:1031800048F46AE070E00E94722C820F931F21962F
:103190002881F1CF009709F459C0EFE9FFE031979A
:1031A000F1F700C000000197F5CFE22FF0E0E45DF9
:1031B000FC4FB490822F86958695869590E0FC0111
:1031C000E45EFC4FE4902770F12C022E02C0F594CF
:1031D000E7940A94E2F7F1E0EF22FF24FC01E45FB8
:1031E000FC4FC490D12C022E02C0D594C7940A94EF
:1031F000E2F731E0C322DD24FC01E450FD4F0491ED
:1032000010E002C0159507952A95E2F70170112785
:10321000E114F10419F081EE0E94A71BC114D1043E
:1032200019F086EE0E94A71B8B2D0E94061CCD284C
:1032300019F086EE0E946F1BEF2819F081EE0E94B4
:103240006F1B012B19F08CE20E94061C219667CFA0
:10325000DF91CF911F910F91FF90EF90DF90CF9072
:10326000BF9008951F93CF93DF9300D000D01F929B
:10327000CDB7DEB749835A8389819A81662359F095
:10328000222349F00E94652A182F682F89819A818C
:103290000E94D72A03C00E94A62A182F69817A812A
:1032A000812F0F900F900F900F900F90DF91CF9183
:1032B0001F910C942F27CF93DF93EC010E946F1B7B
:1032C000CE01805E9109089710F0209719F467E10C
:1032D0007BE102C060E17BE1CE01DF91CF910C94F4
:1032E0007513CF93DF9300D000D01F92CDB7DEB718
:1032F0009093EE028093ED02811520E2920748F44C
:103300000F900F900F900F900F90DF91CF910C9432
:103310005B198EEF89838A831B820E940B2981604F
:10332000782F9D838C8349815A816B818D810E9486
:103330004B270F900F900F900F900F90DF91CF9130
:1033400008950F931F93CF93DF938C01EB016BECE8
:1033500072E08C2F0E941626892B09F046C08091BE
:103360005C0290915D020E94BC23DD27CD53DD4FAE
:103370008881F80110821882833079F048F4813016
:1033800041F1823091F58091CD029091CE0209C039
:10339000843051F08530E9F028C08091CF029091BF
:1033A000D0020097B1F01BC08091D1029091D2025F
:1033B0000097A9F42091CB023091CC028091CD02EC
:1033C0009091CE022115310541F0009741F4C901D9
:1033D00006C08091CB029091CC02009731F0DF9132
:1033E000CF911F910F910C947119DF91CF911F9183
:1033F0000F910895CF93DF93EC01805E91090897B8
:1034000010F0209719F466E07BE102C06CEF7AE1DE
:10341000CE010E9475138C2FDF91CF910C94A71BC6
:10342000CF93DF9300D000D01F92CDB7DEB790933B
:10343000EE028093ED02811520E2920748F40F908E
:103440000F900F900F900F90DF91CF910C94FA197D
:103450008EEF89838A8381E08B830E940B298160B0
:10346000782F9D838C8349815A816B818D810E9445
:103470004B270F900F900F900F900F90DF91CF91EF
:103480000895CF93DF93EC010E94101A80915C02A3
:1034900090915D020E94BC23CE01DF91CF910C94EC
:1034A00071190F931F93CF93DF938C01862F6BECD1
:1034B00072E00E941626892BD1F4C091CB02D091E4
:1034C000CC022097A1F0F8018081833039F4CE013D
:1034D0000E94411ACE010E94411A02C0843038F085
:1034E000CE01DF91CF911F910F910C94411ADF9182
:1034F000CF911F910F9108950F931F93CF93DF9357
:103500008C01EB016BEC72E08C2F0E941626892B4C
:1035100009F06DC0DD27F8018081813041F491858B
:10352000911115C09285992391F082E010C08230EC
:1035300049F4F8018185811107C08285811106C097
:1035400083E005C086E003C085E001C084E0CD5380
:10355000DD4F88838330B1F028F4813071F0823000
:1035600031F045C08430A9F0853079F140C08091B8
:10357000CD029091CE020097A1F58091CB0290915F
:10358000CC0220C08091CF029091D0020097E9F048
:1035900028C08091D1029091D202009711F58091BC
:1035A000CB029091CC02009749F00E94411A809181
:1035B000CD029091CE02009781F013C08091CD0290
:1035C0009091CE02009799F00CC08091CB0290911F
:1035D000CC02009761F00E94411A8091CB02909139
:1035E000CC02DF91CF911F910F910C94101ADF91B3
:1035F000CF911F910F910895882339F090914A033C
:10360000892B80934A030C94242A0895882339F047
:1036100090914903892B809349030C94242A08959F
:10362000882321F00E94DB290C94242A0895882302
:1036300021F00E94E2290C94242A0895E92FE295B2
:10364000EF704E2F50E0FA013297EE30F105B0F4F2
:10365000EC5AFF4F0C94AB2C803F91F018F4883E4D
:1036600068F40EC0843F51F40BC0883E48F0813F9F
:1036700029F406C093FB882780F9089580E0089517
:1036800081E008950E949B2A0E941E1B089580E0FD
:1036900090E00E94DD2380E090E00E94C72310921A
:1036A0004A03109248030E94242AECE9F2E086E0E3
:1036B000DF011D928A95E9F7109299021092960205
:1036C0001092D5020C94F8131092490386E0E7EFAC
:1036D000F2E0DF011D928A95E9F70C94471B8823DD
:1036E000A9F19CEF980F913A60F4E5EFF2E0928136
:1036F000891301C01282319692E0EB3FF907B9F7C6
:103700000DC090E2980F983058F4877091E001C096
:10371000990F8A95EAF7892F0E94E2290C94242AAE
:103720009BE5980F933020F480E090E00C94DD232B
:1037300098E5980F973120F480E090E00C94C7232F
:10374000803F20F00E9422140C94F8130895CF9328
:10375000882309F459C0C82F8CEF8C0F813AF8F4F4
:10376000E7EFF2E08DEF92E02191C21721F08E1782
:103770009F07D1F70EC0E5EFF2E08BEF92E02281D8
:10378000C21301C0128231968E179F07C1F70E94A3
:10379000242A6C2F85EF92E00E94402910C080E21D
:1037A0008C0F883078F4C77081E090E001C0880FFA
:1037B000CA95EAF790914903892B80934903CF91E9
:1037C0000C94242AEBE5EC0FE33040F4F0E0E25DEA
:1037D000FE4F808190E0CF910C94DD23E8E5EC0F63
:1037E000E73150F4F0E0EE0FFF1FEF5CFE4F8081F9
:1037F0009181CF910C94C723C03F30F08C2F0E9451
:103800003015CF910C94F813CF9108951F93CF9357
:10381000DF93182F893329F4C0915E02D0915F02A3
:1038200004C0C0915C02D0915D02812F0E94A71B51
:10383000209741F08FE99FE00197F1F700C0000069
:103840002197F6CF812FDF91CF911F910C946F1BA1
:10385000EF92FF920F931F93CF93DF938091020318
:1038600082958F7009F062C08091FF02882309F46D
:103870005DC0C091340380910303C81709F456C09A
:103880001091FD020091FE02E0900003F090010310
:10389000A701602F812F0E94922BD0E0811143C09D
:1038A000CE0166E070E00E94722CFC01EC5FFC4FE0
:1038B0005181501338C04081411335C0828181113C
:1038C00032C0038114810E191F0920E06091FF02AC
:1038D00070910003809101030E9432198091560279
:1038E0009091570208171907F0F4809102038F7026
:1038F000806180930203CE0166E070E00E94722C2A
:10390000FC01E75FFC4F90819F70906190838DEF89
:1039100092E00E948603DF91CF911F910F91FF905B
:10392000EF900C94A12B2196C770A5CFDF91CF917A
:103930001F910F91FF90EF9008954F925F926F92B9
:103940007F928F929F92AF92BF92CF92DF92EF922F
:10395000FF920F931F93CF93DF93CDB7DEB761979D
:103960000FB6F894DEBF0FBECDBF8C0185E0F80125
:10397000DE011D9601900D928A95E1F7D801EC9039
:103980001196FC90119712966C908DEFA82E82E004
:10399000B82E8090000390900103A4016091FE0274
:1039A0008091FD020E94922B782E8111DBC1F801DB
:1039B000C380D4804090FF02C601881999094C0148
:1039C00020E04091FD025091FE02442009F457C1CD
:1039D000642D70910003809101030E94321980913F
:1039E000560290915702509002038816990608F0EB
:1039F00013C14091000350910103B090FD02A090CB
:103A0000FE02852D807F6A2D09F0A5C08B2D0E94B6
:103A1000922B811115C0AF1013C0BE1011C06110E0
:103A20000FC0852D8F708061809302038DEF92E02F
:103A30000E94860380910203D80115968C93B1C130
:103A400020E04091FD025091FE026091FF027091D2
:103A50000003809101030E943219809156029091D7
:103A60005702843F914050F0A6016F2D8E2D0E9489
:103A7000922B811115C081E0862514C020E0409171
:103A8000FD025091FE026091FF027091000380914F
:103A900001030E94321980915B0280FDE5CF17C0BF
:103AA00080E090E080FF13C0462D6F2D8E2D0E9488
:103AB0006E2B882361F08DEF92E00E948603EDEF7C
:103AC000F2E086E0DF011D928A95E9F76AC1A6015E
:103AD0006F2D8E2D0E94922B811103C081E08625CF
:103AE00002C080E090E0B82FB170CB2E80FF2AC0DA
:103AF000462D6F2D8E2D0E946E2BD82E811122C047
:103B0000ED86FE868D859E850E949B2A292F229513
:103B10002F70223018F0243078F405C09F7049F0DF
:103B2000811107C00DC09F7021F0F8019581907F31
:103B300039F0805E883020F0C8010E948603DC2CBA
:103B40007D2C2FC1662009F42BC180910203816076
:103B50008093020326C18B2D0E94922B811115C0E8
:103B6000AF1013C0BE1011C061100FC0D801159660
:103B70005C92C8010E94860386E0F801ADEFB2E0D6
:103B800001900D928A95E1F760C0ED86FE868D85E5
:103B90009E850E94421B8823C9F16620B9F12091BD
:103BA0000203822F82958F7090E0029774F08091CB
:103BB000FD029091FE0298878F831986DB86CA8664
:103BC0002C87CE0107960E94860386E0F801ADEFB0
:103BD000B2E001900D928A95E1F70E94281C19C06D
:103BE0009090FD028090FE024091000350910103ED
:103BF000682D892D0E94922B8823B1F0ED86FE86D8
:103C00008D859E850E94421B811121C0C8010E94A2
:103C1000860377247394C5C0852D807F09F78DEFC7
:103C200092E00E94860398C08F10E8CF9E10E6CFE6
:103C30006110E4CFD80115965C92C8010E948603FA
:103C400086E0F50111928A95E9F7742CAAC06620E6
:103C5000E9F220910203822F82958F7090E0029703
:103C60000CF4B3CF8091FD029091FE029A83898378
:103C70001B82DD82CC822E83CE010196A4CF60E030
:103C800070910003809101030E94321980915602C5
:103C9000909157028816990608F05EC0762C66202F
:103CA00009F4B4CFC090FD02D090FE024091000311
:103CB000509101036D2D8C2D0E94922B81113BC0E0
:103CC000DF1039C0CE1037C020E0A6016091FF029E
:103CD00070910003809101030E94321980915B0270
:103CE00082FD20C08091020380FD1CC082958F70F0
:103CF000482F50E041155105A9F020910203D80149
:103D000015962C9315974F30510549F08F5F982FDA
:103D10009295907F822F8F70892B15968C93C80176
:103D20000E94860386E0F801ADEFB2E001900D92AB
:103D30008A95E1F736C0ED86FE868D859E850E94C8
:103D4000421B811142CF8091020381608093020364
:103D5000C8010E94860325C086E0F50111928A956C
:103D6000E9F71FC0662009F451CFED86FE868D85E8
:103D70009E850E94421B782E882309F447CF86E057
:103D8000F801ADEFB2E001900D928A95E1F78091D4
:103D9000FD029091FE020E949B2A0E94281C01C0F5
:103DA000712C872D61960FB6F894DEBF0FBECDBF84
:103DB000DF91CF911F910F91FF90EF90DF90CF9007
:103DC000BF90AF909F908F907F906F905F904F903B
:103DD00008958091E30287FF11C08091E80082FD81
:103DE00005C08091EB028111F8CF11C08091E800ED
:103DF0008B770BC08091EB02882349F08091E8001B
:103E000080FFF8CF8091E8008E778093E8000895D6
:103E10008091EC02982F9670963011F4886001C062
:103E2000877F0C940A2B2091E4003091E50095E601
:103E30004091EC00842F817040FF23C08091E80006
:103E400080FD1DC08091EB02882399F0853099F0A8
:103E50008091EB0085FD11C04091E4005091E50098
:103E60002417350729F3915011F09A01E1CF84E02E
:103E7000089582E0089583E0089581E0089580E048
:103E800008954091E80042FFDDCF0895EF92FF9240
:103E90000F931F93CF93DF937C018B010E94131F1D
:103EA000811119C0E70101151105A1F08091E80009
:103EB00085FD0AC08091E8008E778093E8000E941B
:103EC000131F882381F307C089918093F10001506B
:103ED0001109E9CF80E0DF91CF911F910F91FF9001
:103EE000EF900895CF932091EB022430F9F4C09124
:103EF000E900CF703091EC00232F217030FD20E8D5
:103F0000C22B22E02093E9002091E80020FF0BC0A3
:103F100040E050E060E270E00E94461F8091E800BF
:103F20008E778093E800CF70C093E900CF91089519
:103F3000982F953068F59093E900981739F07091B3
:103F4000EC002091ED005091F00003C0242F762F5B
:103F500050E021FD02C09F5FECCF3091EB003E7F2F
:103F60003093EB003091ED003D7F3093ED003091C8
:103F7000EB0031603093EB007093EC002093ED0088
:103F80005093F0002091EE0027FDE5CF80E00895EA
:103F90008F708093E90081E008951F93CF93DF93A2
:103FA000CDB7DEB7AA970FB6F894DEBF0FBECDBF70
:103FB000E3EEF2E08091F100819342E0EB3EF40702
:103FC000C9F78091E402833009F45EC030F4813097
:103FD00071F0823009F498C0AFC08A3009F484C00F
:103FE0008B3009F469C0893009F0A6C020C08091E7
:103FF000E302813A09F0A0C08091E800877F8093B6
:10400000E8008091E7029091E802892B21F468E0B2
:1040100088ED92E003C060E080E090E070E00E94F4
:10402000AB2B8091E8008B778093E80085C080916E
:10403000E302813209F080C08091E7029091E802AA
:10404000009719F0029709F077C08091E800877F08
:104050008093E8008091E80082FD05C08091EB022A
:104060008111F8CF69C08091F200823029F48091EB
:10407000F1008B7F813021F48091F1008093D70291
:104080008091E8008B7754C08091E302813A09F077
:1040900053C08091E7029091E802892B09F04CC04F
:1040A0008091E800877F8093E8008091E80080FF9E
:1040B000FCCF8091110137C08091E3028132E1F59C
:1040C0008091E7029091E802892BB1F58091E80098
:1040D000877F8093E8000E94E91E8091E50280932B
:1040E00011010E94641B28C08091E302813221F5F6
:1040F0008091E800877F8093E8000E94E91E80910C
:10410000E6028093D60218C08091E302813AA1F4BE
:104110008091E800877F8093E8008091E80080FF2D
:10412000FCCF8091D6028093F1008091E8008E77D9
:104130008093E8000E94E91E8091E80083FFE5C1BA
:104140008091E3029091E402492F50E04A305105FA
:1041500008F0DBC1FA01EE59FF4F0C94AB2C80380C
:1041600021F0823809F0D1C108C08091E00290911D
:10417000E102992389F082600FC08091E7028F707D
:10418000853008F0C2C18093E9008091EB0085FB87
:10419000882780F91092E9009091E800977F90932A
:1041A000E8008093F1001092F10078C1282F2D7F54
:1041B00009F0ABC1882319F0823061F0A6C180916B
:1041C000E502813009F0A1C1933009F080E08093CD
:1041D000E1022EC08091E50281112AC08091E702A0
:1041E0008F702FEF280F243008F08FC18093E900E3
:1041F0002091EB0020FF1CC0933021F48091EB0054
:10420000806214C09091EB0090619093EB0021E0EC
:1042100030E0A90102C0440F551F8A95E2F7409390
:10422000EA001092EA008091EB0088608093EB0036
:104230001092E9008091E800877F8093E8000E9457
:10424000E91E63C1811161C11091E5021F77809160
:10425000E3008078812B8093E3008091E800877FE2
:104260008093E8000E94E91E8091E80080FFFCCF67
:104270008091E30080688093E300111102C082E026
:1042800001C083E08093EB0240C18058823008F087
:104290003CC12091E5023091E6022C3D53E0350708
:1042A00079F583E08A838AE289834FB7F894DE0147
:1042B000139620E03EE051E2E32FF0E050935700E8
:1042C000E49120FF03C0E295EF703F5FEF708E2F07
:1042D00090E0EA3010F0C79601C0C0968D939D9390
:1042E0002F5F243149F74FBF8091E800877F80938B
:1042F000E8006AE270E0CE0101960E94AB2BBCC0E0
:104300008091E7029091E802432F552743305105F1
:10431000B1F068F44130510509F406C1423051054D
:1043200009F0F3C08BE590E0EFE8F4E057C04132CC
:10433000510589F14232510509F43CC0E6C0C9017A
:10434000992781309105B9F070F082309105D9F04C
:10435000039709F0DAC0ECEFF4E0E4918E2F90E0DF
:10436000ECEFF4E038C0E6E3F5E0E4918E2F90E066
:10437000E6E3F5E030C0E4E2F5E0E4918E2F90E072
:10438000E4E2F5E028C0EAE1F5E0E4918E2F90E068
:10439000EAE1F5E020C08330910508F0B6C0880F4F
:1043A000991FFC01E859FE4F0190F081E02D89E052
:1043B00090E014C08330910508F0A7C0FC01EE0F17
:1043C000FF1FEE59FE4F0190F081E02DDC01A15A54
:1043D000BE4F8C9190E0009709F497C02091E800BF
:1043E000277F2093E8002091E9023091EA02281704
:1043F000390708F4C90140E0009769F12091EB0208
:104400002223D1F12530C1F12091E80023FD34C0F1
:104410002091E80022FD2CC02091E80020FFECCF85
:104420002091F20030E0009759F02830310540F437
:1044300044914093F100319601972F5F3F4FF3CFA6
:1044400041E02830310509F040E02091E8002E7766
:104450002093E800D1CF4111D1CF0AC08091EB0267
:10446000882351F0853041F08091E80083FD04C03D
:104470008091E80082FFF2CF8091E8008B778093F3
:10448000E80043C0803809F040C08091E800877F91
:104490008093E8008091E2028093F1008091E8002F
:1044A0008E77CBCE811131C08091E5029091E602EA
:1044B0009927029754F58091E800877F8093E80060
:1044C0001091E5021093E2020E94E91E111106C04C
:1044D0008091E30087FD02C081E001C084E0809309
:1044E000EB0242E061EC81E00E94981F42E261EC45
:1044F00084E00E94981F42E261EC82E00E94981FD3
:1045000042E260EC83E00E94981F8091E80083FF04
:1045100010C08091E800877F8093E8008091EB00D5
:1045200080628093EB0005C082E190E0EAEEF4E067
:1045300055CFAA960FB6F894DEBF0FBECDBFDF9160
:10454000CF911F9108951F920F920FB60F921124D1
:104550002F933F934F935F936F937F938F939F938B
:10456000AF93BF93CF93DF93EF93FF93C091E90095
:10457000CF708091EC00D82FD17080FDD0E81092E0
:10458000E9008091F000877F8093F00078940E948A
:10459000CD1F1092E9008091F00088608093F000B8
:1045A000CD2BCF70C093E900FF91EF91DF91CF91B8
:1045B000BF91AF919F918F917F916F915F914F913B
:1045C0003F912F910F900FBE0F901F9018951F9243
:1045D0000F920FB60F9211242F933F934F935F9337
:1045E0006F937F938F939F93AF93BF93EF93FF93BB
:1045F0008091E10082FF09C08091E20082FF05C046
:104600008091E1008B7F8093E1008091E10080FF49
:1046100017C08091E20080FF13C08091E2008E7F7E
:104620008093E2008091E20080618093E2008091BB
:10463000D80080628093D80019BC85E08093EB029B
:104640008091E10084FF2EC08091E20084FF2AC0A7
:1046500084E089BD86E089BD09B400FEFDCF80916C
:10466000D8008F7D8093D8008091E1008F7E809369
:10467000E1008091E2008F7E8093E2008091E20071
:1046800081608093E2008091E202882311F084E04F
:1046900007C08091E30087FD02C081E001C083E094
:1046A0008093EB028091E10083FF27C08091E200BC
:1046B00083FF23C08091E100877F8093E10082E047
:1046C0008093EB021092E2028091E1008E7F809352
:1046D000E1008091E2008E7F8093E2008091E20011
:1046E00080618093E20042E060E080E00E94981FD9
:1046F0008091F00088608093F000FF91EF91BF916E
:10470000AF919F918F917F916F915F914F913F9169
:104710002F910F900FBE0F901F901895EEE3F2E0CF
:10472000848195812AE030E0B9010E94832C609356
:104730000501868180930601828580931501848519
:104740008093140186859785B9010E94832C60931C
:1047500003018089809304018289809313018489F5
:1047600080931201089580913E0290913F029093B0
:104770001701809316010895009741F0EFE9FFE0DB
:104780003197F1F700C000000197F6CF089520910E
:10479000F3023091F4022817390771F09093F40274
:1047A0008093F302E0919302F0919402309721F00C
:1047B0000084F185E02D099408952091F102309153
:1047C000F2022817390771F09093F2028093F102F8
:1047D000E0919302F0919402309721F00680F781E6
:1047E000E02D09940895E0919302F091940230979E
:1047F00021F00190F081E02D099480E00895FF926E
:104800000F931F93CF93DF938C01EB01F42E8091D4
:10481000020182FF3CC08B7F8093020180913802AD
:10482000909139029B01281B390B809116019091C0
:1048300017012817390750F4809136020E94A71BF0
:10484000809102018D7F8093020116C080914A03FE
:10485000826080934A03809136020E94A71B809158
:1048600002018260809302018091590285FF04C099
:1048700086FD02C0F1101EC080915C0290915D0225
:104880000E94BC23809136020E946F1B0AC0802FB9
:104890000E946F1B8091360290913702081719070A
:1048A00019F482E00E94DB290E94242AD093390265
:1048B000C0933802DF91CF911F910F91FF9008951F
:1048C000CF93DF93EC0181E0898B909149038F8135
:1048D000892B8093490390914A038885892B809383
:1048E0004A030E94242AEA81FB81CE010696309772
:1048F00029F06C897D89DF91CF910994DF91CF9167
:1049000008950F931F93CF93DF93FC01228521110C
:1049100034C0EC01038114811755C80166E170E0D1
:104920000E94722CDC01AE58BE4F1496ED91FC91A2
:10493000159788589E4F309729F054966D917C9129
:1049400055970995C80166E170E00E94722C8C01B0
:104950000E581E4FF80187810E94E229F8018085D8
:104960000E94DB290E94242A188219861B861E8237
:104970001D821092710110927001DF91CF911F91F1
:104980000F910895E0E6F2E080E090E08830910534
:1049900031F0248127FF148201963596F7CF90934A
:1049A0003502809334020895CF9390913002992379
:1049B000C9F0882311F0C0E003C01092300212C089
:1049C00080913002C817C8F7EC2FF0E0EE0FFF1F00
:1049D000EE5DFD4F808191810E94FA190E94242A88
:1049E000CF5FEECFCF9108950F931F93CF93DF93B7
:1049F000C42FD22FFC0182818823C9F040933A0250
:104A00000E940B299093F0028093EF0280E28C0FBA
:104A1000883008F05BC0C77081E001C0880FCA957C
:104A2000EAF7DF91CF911F910F910C94061B8091B3
:104A30003A02481334C08091EF029091F0020E9434
:104A4000FC2820915602309157028217930738F5BF
:104A500010E21D0FCD17B9F080E28C0F883040F4C2
:104A6000C77081E001C0880FCA95EAF70E94171B42
:104A7000183028F581E09D2F977001C0880F9A9516
:104A8000EAF70E94061B802F0E94061C1830F0F4E3
:104A9000D77081E001C0880FDA95EAF70AC080E29A
:104AA0008C0F883098F4C77081E001C0880FCA95D8
:104AB000EAF7DF91CF911F910F910C94171B802F74
:104AC000DF91CF911F910F910C94061CDF91CF9134
:104AD0001F910F9108950F931F93CF93DF930EE3D0
:104AE00012E0C7E6D1E0CE010E941F2CF8018193AD
:104AF0008F012196C938F1E0DF07A9F7C0E0D0E0C7
:104B0000FE01E252FF4F85919491009711F0FC0154
:104B100009952896C839D10599F7DF91CF911F9152
:104B20000F9108950F931F93CF93DF930EE312E03D
:104B3000C7E6D1E0CE010E941F2CF80161918F01E0
:104B4000681719F0CE010E942D2C2196C938F1E08A
:104B5000DF0781F7DF91CF911F910F910895EEE369
:104B6000F2E0128E138E8FEA90E09183808385E0CD
:104B7000848F88E893E1938382832CE231E035834C
:104B8000248382E390E09783868385E090E0918799
:104B900080878AE090E09387828744E150E05587E0
:104BA00044873787268724E630E0318B208B28E046
:104BB00030E0338B228B28E230E0358B248B28ECDD
:104BC00030E0378B268B318F208F158E978F868F15
:104BD00080E590E091A380A30E9492250C946B2520
:104BE000CF93DF93C9E2D2E060E0CE010E942D2C8A
:104BF0002196C11584E0D807B9F7DF91CF910895C8
:104C0000883088F49B0190E06AE070E00E94722C8A
:104C1000BC0167527E4F4AE050E0C9010E940F2C50
:104C200080E090E008958FEF9FEF0895883088F43A
:104C30009B0190E06AE070E00E94722CBC01675713
:104C40007E4F4AE050E0C9010E940F2C80E090E0C6
:104C500008958FEF9FEF08950F931F93CF93DF93E6
:104C6000843090F5643080F54A3070F521159CE56C
:104C7000390731F4E091BC02F091BD02EF2B21F134
:104C80008901282F862F90E064E170E00E94722C49
:104C9000C42FD0E0CC0FDD1FC80FD91F822F90E0AA
:104CA00060E570E00E94722CC80FD91F612FCE0101
:104CB00087960E942D2C602FCE018896DF91CF9190
:104CC0001F910F910C942D2CDF91CF911F910F917B
:104CD00008959F92AF92BF92CF92DF92EF92FF9290
:104CE0000F931F93CF93DF93CDB7DEB764970FB6C3
:104CF000F894DEBF0FBECDBFA090BC02B090BD0245
:104D000081E090E09093BD028093BC0200E010E04F
:104D1000C80160E570E00E94722C6C01912CE12CBE
:104D2000F12CF701EE0FFF1FEC0DFD1DE65CFA4FB5
:104D3000259134914E2D692D802F0E942C268FEFC6
:104D4000E81AF80AEAE0EE16F10459F7F4E1CF0E9A
:104D5000D11C939484E09812E2CF0F5F1F4F043070
:104D60001105B1F60E94AF251A8219821C821B829E
:104D70001E821D8218861F8288EC90E09A878987A0
:104D800009E811E04AE050E0B801CE0101960E9426
:104D9000512C065F1F4F093DE1E01E0799F77E0188
:104DA000FBE0EF0EF11C8AE0F70111928A95E9F71A
:104DB0004AE050E0B801C7010E94512C065F1F4F26
:104DC0000932F2E01F07A1F7B092BD02A092BC0227
:104DD00064960FB6F894DEBF0FBECDBFDF91CF91C2
:104DE0001F910F91FF90EF90DF90CF90BF90AF9009
:104DF0009F9008950F931F93CF93DF93843040F5D6
:104E0000643030F54A3020F5282F862F90E064E199
:104E100070E00E94722CC42FD0E0CC0FDD1FC80FB1
:104E2000D91F822F90E060E570E00E94722CC80FBD
:104E3000D91FCE0187960E941F2C90E0182F0027C3
:104E4000CE0188960E941F2C9801282BC90102C010
:104E500080E090E0DF91CF911F910F910895462F50
:104E60002091BE023091BF02232B91F47E3F39F492
:104E70006E3F71F48091ED029091EE0208958430BE
:104E800038F4743028F46A3018F4672F0C94FA263A
:104E900080E090E00895CF92DF92FF920F931F93EE
:104EA000CF93DF93CDB7DEB767970FB6F894DEBF29
:104EB0000FBECDBFF42E4B8B052F5C8B162F6D8B49
:104EC0007E8B8F8BCE88DF88A601602F8F2D0E946E
:104ED000922B811109C080913C0290913D02019674
:104EE00090933D0280933C02111110924A03FE01FF
:104EF0003D9686E0DF011D928A95E9F78091400298
:104F000090914102892B11F10E940B2920914503B8
:104F100030914603821B930B209140023091410255
:104F20008217930740F08091470382FB992790F9FD
:104F300081E0892701C080E080FF03C082E00E94F9
:104F40001F2B0E940A2A81110E94D029FD860E87FC
:104F50001F87D98AC88A86E0FE013D96DE01179632
:104F600001900D928A95E1F7CE0107960E949D1C53
:104F700081114CC086E0FE013796DE01119601904A
:104F80000D928A95E1F7DF80F8840A851B85A801D8
:104F90006F2D8D2D0E94922B811138C080910303BB
:104FA00090E09C012F5F3F4F2770332740913403DF
:104FB00050E02417350789F1D982FA821D830C83CA
:104FC00066E070E00E94722CDC01AC5FBC4F96E0A2
:104FD000FE01319601900D929A95E1F7209303031B
:104FE0000E94A12B13C090E066E070E00E94722C3A
:104FF0008C5F9C4F0E949D1C8823E1F080913403BC
:1050000090E0019687709927809334038091340350
:10501000909103038913E7CF0DC00E94641B109287
:10502000030310923403EDEFF2E086E0DF011D92FE
:105030008A95E9F767960FB6F894DEBF0FBECDBF2D
:10504000DF91CF911F910F91FF90DF90CF90089546
:105050008091D702089580E00895CF93DF9300D028
:105060001F92CDB7DEB79091EB02943011F5898392
:105070007B836A839093E9008FEF9091E8008150E1
:1050800095FD06C095ED9A95F1F700008111F5CFD9
:105090008091E80085FF0DC040E050E063E070E0E3
:1050A000CE0101960E94461F8091E8008E77809382
:1050B000E8000F900F900F90DF91CF910895BC0101
:1050C00084E00C942D28BC0183E00C942D2824E06E
:1050D0002093E9002FEF3091E800215035FD06C004
:1050E00035ED3A95F1F700002111F5CF2091E80058
:1050F00025FF0BC040E050E066E070E00E94461FD4
:105100008091E8008E778093E8000895CF93DF9335
:1051100021E02093E9002FEF3091E800215035FD88
:1051200006C035ED3A95F1F700002111F5CF209139
:10513000E80025FF14C0EC0140E050E068E070E0BA
:105140000E94461F8091E8008E778093E80088E0F7
:10515000FE01A8EDB2E001900D928A95E1F7DF9192
:10516000CF91089581E08093E00080E28093D800A1
:105170001092C9008FE19EE40197F1F700C0000092
:1051800087E090EBDC0180934F0390935003A09352
:105190005103B09352039CE088E10FB6F894A895B0
:1051A000809360000FBE90936000FFCF78941F92B1
:1051B0000F920FB60F9211248F939F93AF93BF93CB
:1051C0008091B8029091B902A091BA02B091BB024D
:1051D0000196A11DB11D8093B8029093B902A093CE
:1051E000BA02B093BB02BF91AF919F918F910F9084
:1051F0000FBE0F901F9018959C014FB7F8948091A7
:10520000B8029091B902A091BA02B091BB024FBF0F
:10521000821B930B08952FB7F8948091B802909158
:10522000B902A091BA02B091BB022FBF08951F929C
:105230000F920FB60F9211248F939F93AF93BF934A
:1052400080919502811113C08091B8029091B902AA
:10525000A091BA02B091BB024196A11DB11D8093ED
:10526000B8029093B902A093BA02B093BB02BF9167
:10527000AF919F918F910F900FBE0F901F90189537
:105280009C01FC0132969FEF80E04191461789F026
:105290009F3F19F4411101C0982F8F5F8630A9F705
:1052A0009F3F39F0F901E90FF11D97FDFA956283EF
:1052B00008950895CF9384E090E00E941F2CC82F9A
:1052C00082E290E00E941F2C2C2F30E0A901582B85
:1052D000CA01CF9108956AEE7EEF80E090E00E94CF
:1052E0004B2C60E082E090E00E942D2C60E083E097
:1052F00090E00E942D2C10924E0360E084E090E03C
:105300000E942D2C60E082E290E00E942D2C60E053
:1053100085E090E00E942D2C60E086E090E00E9405
:105320002D2C6FEF87E090E00E942D2C40E050E0A4
:10533000BA0188E090E00E943F2C60E08DE090E0B0
:105340000E942D2C40E050E0BA0188E190E00E94DC
:105350003F2C60E087E190E00E942D2C40E050E07F
:10536000BA018CE190E00E943F2C60E070E080E2A6
:1053700090E00E944B2C40E050E0BA0188E190E0C0
:105380000E943F2C40E050E0BA018FE090E00E9484
:105390003F2C40E050E0BA0183E190E00C943F2CB8
:1053A00080914D03882331F010924D0310924C03ED
:1053B00010924B030895809590914A03892380931E
:1053C0004A03089580959091490389238093490366
:1053D0000895CF93C0918A02C2FB992790F998173C
:1053E00081F080FBC2F9C0938A026091890284E057
:1053F00090E00E942D2C6C2F82E290E0CF910C94D3
:105400002D2CCF91089510924703109246031092CD
:10541000450308958091400290914102892B89F0C3
:105420000E940B2920914B0330914C03AC01421B8D
:10543000530B81E020914002309141024217530703
:1054400008F480E0817008959091490380914A03A7
:10545000892B90914803892B8093F50280914D030D
:10546000882301F18091400290914102892B29F01B
:105470000E940A2A81110E94D0299091F502809100
:105480004D03892B8093F502E7EFF2E097E080E08F
:10549000915029F021912223D9F38F5FF9CF811107
:1054A0000E94D029E0919302F0919402309731F05C
:1054B0000280F381E02D85EF92E0099408958091B8
:1054C00044038111109244030895BF92CF92DF925A
:1054D000EF92FF920F931F93CF93DF938C01C090B5
:1054E000EC0280914E03C82AC7E0D0E0D12CE12C19
:1054F000F12CD701C6010C2E04C0B695A79597953F
:1055000087950A94D2F780FD04C0219790F7B12CBB
:1055100007C0BC2EB8018C2F0E94E9160197A9F391
:105520008B2DDF91CF911F910F91FF90EF90DF9026
:10553000CF90BF900895CF93DF93EC010E94652A2E
:10554000BE010E94E916DF91CF910895282F892F7F
:105550009E3F59F16AE00E94692C820FA82FA77024
:1055600086958695869590E063E070E00E94722CA7
:10557000FC01EB5CFC4F40E050E090E0219130E01A
:105580000A2E02C0369527950A94E2F72170332738
:10559000042E01C0220F0A94EAF7922B4F5F5F4F4F
:1055A0004330510559F7892F089580E00895282F39
:1055B000892F362F9E3F69F16AE00E94692C820F85
:1055C000982F9770A1E001C0AA0F9A95EAF78695E7
:1055D0008695869590E063E070E00E94722CFC0155
:1055E000EB5CFC4F40E050E0632F70E090819B014A
:1055F000042E02C0369527950A94E2F72170219572
:1056000029272A23292721934F5F5F4F43305105D4
:1056100069F708958093EC020C94471B41E050E039
:1056200060E070E004C0440F551F661F771F8A9525
:10563000D2F740958091EC0284230C940A2B2091A0
:1056400047038095822380934703982F977041F4F6
:1056500030E0482F082E000C550B2417350721F495
:1056600090918A0292FF07C08595859585950E9445
:105670000E2B0C94032A08950F931F9341E050E0E2
:1056800060E070E08A019B0104C0000F111F221F1F
:10569000331F8A95D2F7D901C8012091EC02822BE1
:1056A0001F910F910C940A2B90918A0292FD10C0C9
:1056B000982F990F990F990F692B609347030E94B8
:1056C0003C2B0E940B299093460380934503089539
:1056D0000C943C2B80934E030C94471BCF93B82F14
:1056E000C62F20913403A09103032A17B1F030E0B4
:1056F000C90166E070E00E94722CFC01EC5FFC4F77
:1057000081818C1306C080818B1303C08281841336
:1057100006C02F5F3F4F2770E8CF80E001C081E0D7
:10572000CF910895452B41F06F3F41F491E08F3FB9
:1057300009F090E0892F03C081E001C080E0817012
:1057400008958091340390910303891719F08F5FB6
:105750008770FBCF08952091E9023091EA02261765
:10576000370748F06115710539F42091E8002E776C
:105770002093E80001C0B901FC0120E0611571052A
:1057800061F18091EB028823D9F18530D9F18091C4
:10579000E80083FD39C08091E80082FD2BC0809134
:1057A000E80080FFEBCF8091F20090E06115710579
:1057B00051F08830910538F421912093F100615027
:1057C00071090196F3CF21E0089709F020E080915C
:1057D000E8008E778093E800D1CF2111D2CF0AC0A4
:1057E0008091EB02882361F0853061F08091E800C0
:1057F00083FD0AC08091E80082FFF2CF80E0089527
:1058000082E0089583E0089581E00895FB01DC01C2
:1058100002C005900D9241505040D8F70895DC0128
:10582000CB01FC01F999FECF06C0F2BDE1BDF89AAB
:10583000319600B40D9241505040B8F70895F9994F
:10584000FECF92BD81BDF89A992780B50895A8E151
:10585000B0E042E050E00C94112C262FF999FECFD5
:1058600092BD81BDF89A019700B4021639F01FBAB3
:1058700020BD0FB6F894FA9AF99A0FBE08950396D0
:10588000272F0E942E2C0E942D2C252F0E942E2C7B
:10589000242F0C942E2C0196272F0E942E2C0C9432
:1058A0002D2CDC01CB0103C02D910E945C2C4150BA
:1058B0005040D0F70895262FF999FECF1FBA92BD18
:1058C00081BD20BD0FB6F894FA9AF99A0FBE0196E1
:1058D0000895002480FD060E660F11F08695D1F71D
:1058E000802D08950024552704C0080E591F880FE5
:1058F000991F009729F076956795B8F37105B9F768
:10590000802D952F0895AA1BBB1B51E107C0AA1F2C
:10591000BB1FA617B70710F0A61BB70B881F991F50
:105920005A95A9F780959095BC01CD01089597FBF4
:10593000072E16F4009407D077FD09D00E94832C1F
:1059400007FC05D03EF4909581959F4F0895709582
:1059500061957F4F0895EE0FFF1F0590F491E02DA4
:105960000994692796276927782787277827089534
:10597000FB01DC0102C001900D9241505040D8F76C
:105980000895DC0101C06D9341505040E0F7089547
:04599000F894FFCFB9
:10599400FF01011E641E3228288628672863285FB9
:1059A40028012808140AAF004AB0ED34767F63005A
:1059B40066643130673736353433969594938182F3
:1059C40083E200E900EA00B500B600B700CD008329
:1059D40001CC008A019201940121022302240225B0
:1059E40002260227022A02B300B4006F00700040AE
:0E59F40022814F042D04AC03A104BA04DA048E
:00000001FF
